:020000040800F2
:1000000000800120651A0008B51A0008B51A00081A
:10001000B51A0008B51A0008B51A0008000000005B
:10002000000000000000000000000000B51A0008F9
:10003000B51A000800000000B51A00080F410008BA
:10004000B51A0008B51A0008B51A0008B51A000854
:10005000B51A0008B51A0008315300083B530008D0
:10006000455300084F53000859530008B51A0008BB
:10007000B51A0008B51A0008B51A0008B51A000824
:10008000B51A0008B51A0008B51A000800000000EB
:1000900000000000000000000000000063530008A2
:1000A000F94F0008754F00080D500008954F0008E3
:1000B000A94F0008BD4F0008D14F000811460008A5
:1000C000214600083146000841460008B51A0008DC
:1000D000B51A0008C1470008D94700080000000011
:1000E00079530008AD410008B51A0008000000006F
:1000F000000000000000000000000000B51A000829
:1001000000000000B51A0008E54F0008B51A000805
:1001100000000000000000000000000000000000DF
:10012000B51A0008B51A0008B51A0008B51A000873
:10013000B51A0008000000000000000000000000E8
:10014000000000000000000000000000B51A0008D8
:10015000B51A0008B51A0008B51A0008F1470008DA
:100160005146000861460008000000000000000041
:10017000000000000000000000000000000000007F
:1001800000000000B51A0008000000000000000098
:04019000B51A000894
:10019400034613F8012B002AFBD1181A01387047C3
:1001A40081F0004102E000BF83F0004330B54FEA24
:1001B40041044FEA430594EA050F08BF90EA020F91
:1001C4001FBF54EA000C55EA020C7FEA645C7FEA24
:1001D400655C00F0E2804FEA5454D4EB5555B8BF47
:1001E4006D420CDD2C4480EA020281EA030382EAB8
:1001F400000083EA010180EA020281EA0303362D4A
:1002040088BF30BD11F0004F4FEA01314FF4801C1C
:100214004CEA113102D0404261EB410113F0004F2E
:100224004FEA03334CEA133302D0524263EB4303E5
:1002340094EA050F00F0A780A4F10104D5F1200E83
:100244000DDB02FA0EFC22FA05F2801841F10001DE
:1002540003FA0EF2801843FA05F359410EE0A5F1B2
:1002640020050EF1200E012A03FA0EFC28BF4CF0E3
:10027400020C43FA05F3C01851EBE37101F0004599
:1002840007D54FF0000EDCF1000C7EEB00006EEBA6
:100294000101B1F5801F1BD3B1F5001F0CD3490830
:1002A4005FEA30004FEA3C0C04F101044FEA445287
:1002B40012F5800F80F09A80BCF1004F08BF5FEA0E
:1002C400500C50F1000041EB045141EA050130BDEE
:1002D4005FEA4C0C404141EB010111F4801FA4F191
:1002E4000104E9D191F0000F04BF01460020B1FAE6
:1002F40081F308BF2033A3F10B03B3F120020CDA1E
:100304000C3208DD02F1140CC2F10C0201FA0CF0FB
:1003140021FA02F10CE002F11402D8BFC2F1200C60
:1003240001FA02F120FA0CFCDCBF41EA0C01904016
:10033400E41AA2BF01EB0451294330BD6FEA04045F
:100344001F3C1CDA0C340EDC04F11404C4F120024A
:1003540020FA04F001FA02F340EA030021FA04F35C
:1003640045EA030130BDC4F10C04C4F1200220FAB3
:1003740002F001FA04F340EA0300294630BD21FAF1
:1003840004F0294630BD94F0000F83F4801306BFB7
:1003940081F480110134013D4EE77FEA645C18BFAB
:1003A4007FEA655C29D094EA050F08BF90EA020F42
:1003B40005D054EA000C04BF1946104630BD91EA3A
:1003C400030F1EBF0021002030BD5FEA545C05D13D
:1003D4004000494128BF41F0004130BD14F580047C
:1003E4003CBF01F5801130BD01F0004545F0FE41F0
:1003F40041F470014FF0000030BD7FEA645C1ABF25
:10040400194610467FEA655C1CBF0B46024650EA5B
:10041400013406BF52EA033591EA030F41F4002187
:1004240030BD00BF90F0000F04BF0021704730B50D
:100434004FF4806404F132044FF000054FF00001E2
:1004440050E700BF90F0000F04BF0021704730B5A3
:100454004FF4806404F1320410F0004548BF404278
:100464004FF000013EE700BF42004FEAE2014FEACD
:1004740031014FEA02701FBF12F07F4393F07F4FA8
:1004840081F06051704732F07F4208BF704793F0AB
:100494007F4F04BF41F40021704730B54FF46074BE
:1004A40001F0004521F000411CE700BF50EA0102C1
:1004B40008BF704730B54FF000050AE050EA01026A
:1004C40008BF704730B511F0004502D5404261EBDA
:1004D40041014FF4806404F132045FEA915C3FF41B
:1004E400D8AE4FF003025FEADC0C18BF03325FEAB8
:1004F400DC0C18BF033202EBDC02C2F1200300FA69
:1005040003FC20FA02F001FA03FE40EA0E0021FA8D
:1005140002F11444BDE600BF70B54FF0FF0C4CF47B
:10052400E06C1CEA11541DBF1CEA135594EA0C0F2D
:1005340095EA0C0F00F0DEF82C4481EA030621EA68
:100544004C5123EA4C5350EA013518BF52EA0335A3
:1005540041F4801143F4801338D0A0FB02CE4FF055
:100564000005E1FB02E506F00042E0FB03E54FF085
:100574000006E1FB03569CF0000F18BF4EF0010E7D
:10058400A4F1FF04B6F5007F64F5407404D25FEA79
:100594004E0E6D4146EB060642EAC62141EA55512C
:1005A4004FEAC52040EA5E504FEACE2EB4F1FD0C6E
:1005B40088BFBCF5E06F1ED8BEF1004F08BF5FEAEC
:1005C400500E50F1000041EB045170BD06F000469E
:1005D40046EA010140EA020081EA0301B4EB5C044B
:1005E400C2BFD4EB0C0541EA045170BD41F4801143
:1005F4004FF0000E013C00F3AB8014F1360FDEBF68
:10060400002001F0004170BDC4F10004203C35DA43
:100614000C341BDC04F11404C4F1200500FA05F3C6
:1006240020FA04F001FA05F240EA020001F0004267
:1006340021F0004110EBD37021FA04F642EB0601DD
:100644005EEA430E08BF20EAD37070BDC4F10C0407
:10065400C4F1200500FA04F320FA05F001FA04F2CB
:1006640040EA020001F0004110EBD37041F10001B7
:100674005EEA430E08BF20EAD37070BDC4F12005C2
:1006840000FA05F24EEA020E20FA04F301FA05F22A
:1006940043EA020321FA04F001F0004121FA04F2D2
:1006A40020EA020000EBD3705EEA430E08BF20EAA2
:1006B400D37070BD94F0000F0FD101F000464000DC
:1006C40041EB010111F4801F08BF013CF7D041EA5E
:1006D400060195F0000F18BF704703F00046520062
:1006E40043EB030313F4801F08BF013DF7D043EA33
:1006F4000603704794EA0C0F0CEA135518BF95EAE9
:100704000C0F0CD050EA410618BF52EA4306D1D16F
:1007140081EA030101F000414FF0000070BD50EA8E
:10072400410606BF1046194652EA430619D094EA18
:100734000C0F02D150EA013613D195EA0C0F05D102
:1007440052EA03361CBF104619460AD181EA030156
:1007540001F0004141F0FE4141F470014FF000000E
:1007640070BD41F0FE4141F4780170BD70B54FF0A9
:10077400FF0C4CF4E06C1CEA11541DBF1CEA135529
:1007840094EA0C0F95EA0C0F00F0A7F8A4EB05040B
:1007940081EA030E52EA03354FEA013100F0888002
:1007A4004FEA03334FF0805545EA131343EA1263CB
:1007B4004FEA022245EA111545EA10654FEA002680
:1007C4000EF000419D4208BF964244F1FD0404F539
:1007D400407402D25B084FEA3202B61A65EB030595
:1007E4005B084FEA32024FF480104FF4002CB6EB52
:1007F400020E75EB030E22BFB61A754640EA0C00D2
:100804005B084FEA3202B6EB020E75EB030E22BF11
:10081400B61A754640EA5C005B084FEA3202B6EB52
:10082400020E75EB030E22BFB61A754640EA9C0011
:100834005B084FEA3202B6EB020E75EB030E22BFE1
:10084400B61A754640EADC0055EA060E18D04FEA9F
:10085400051545EA16754FEA06164FEAC30343EA3F
:1008640052734FEAC2025FEA1C1CC0D111F4801F0C
:100874000BD141EA00014FF000004FF0004CB6E705
:1008840011F4801F04BF01430020B4F1FD0C88BFA4
:10089400BCF5E06F3FF6AFAEB5EB030C04BFB6EBAF
:1008A400020C5FEA500C50F1000041EB045170BDA2
:1008B4000EF0004E4EEA113114EB5C04C2BFD4EBCF
:1008C4000C0541EA045170BD41F480114FF0000E53
:1008D400013C90E645EA060E8DE60CEA135594EACF
:1008E4000C0F08BF95EA0C0F3FF43BAF94EA0C0FD2
:1008F4000AD150EA01347FF434AF95EA0C0F7FF447
:1009040025AF104619462CE795EA0C0F06D152EA9A
:1009140003353FF4FDAE1046194622E750EA41067E
:1009240018BF52EA43067FF4C5AE50EA41047FF48F
:100934000DAF52EA43057FF4EBAE12E74FF0FF3CF4
:1009440006E000BF4FF0010C02E000BF4FF0010CC5
:100954004DF804CD4FEA410C7FEA6C5C4FEA430C3E
:1009640018BF7FEA6C5C1BD001B050EA410C0CBF8D
:1009740052EA430C91EA030F02BF90EA020F0020EF
:10098400704710F1000F91EA030F58BF994208BF56
:1009940090422CBFD8176FEAE37040F00100704713
:1009A4004FEA410C7FEA6C5C02D150EA013C07D16A
:1009B4004FEA430C7FEA6C5CD6D152EA033CD3D0B5
:1009C4005DF8040B704700BF8446104662468C46AF
:1009D4001946634600E000BF01B5FFF7B7FF0028E2
:1009E40048BF10F1000F01BD4DF808EDFFF7F4FF0B
:1009F4000CBF012000205DF808FB00BF4DF808ED96
:100A0400FFF7EAFF34BF012000205DF808FB00BFB8
:100A14004DF808EDFFF7E0FF94BF012000205DF8DA
:100A240008FB00BF4DF808EDFFF7CEFF94BF01208F
:100A340000205DF808FB00BF4DF808EDFFF7C4FF88
:100A440034BF012000205DF808FB00BF4FEA410CD1
:100A54007FEA6C5C02D150EA013C0AD14FEA430CB4
:100A64007FEA6C5C02D152EA033C02D14FF00000F1
:100A740070474FF0010070474FEA4102B2F1E04382
:100A840024BFB3F5001CDCF1FE5C0DD901F0004C71
:100A94004FEAC0024CEA5070B2F1004F40EB8300C1
:100AA40008BF20F00100704711F0804F21D113F1ED
:100AB4003872BCBF01F00040704741F480114FEA26
:100AC4005252C2F11802C2F1200C10FA0CF320FAAF
:100AD40002F018BF40F001004FEAC1234FEAD323CC
:100AE40003FA0CFC40EA0C0023FA02F34FEA430336
:100AF400CCE77FEA625307D150EA01331EBF4FF0BF
:100B0400FE4040F44000704701F0004040F0FE40D9
:100B140040F40000704700BF53B94AB9002908BF28
:100B240000281CBF4FF0FF314FF0FF3000F00CB82D
:100B3400ADF1080C6DE904CE05F076FFDDF804E0B4
:100B4400DDE9022304B07047704700BF0348044B3B
:100B5400834202D0034B03B1184770479000002032
:100B6400900000200000000005480649091A891079
:100B740001EBD171491002D0034B03B11847704700
:100B840090000020900000200000000010B5064CEA
:100B9400237843B9FFF7DAFF044B13B10448AFF3EA
:100BA40000800123237010BD90000020000000008D
:100BB400A46D000808B5054B1BB105490548AFF302
:100BC4000080BDE80840FFF7CFBF00BF0000000071
:100BD40094000020A46D0008F8B50546902004F0A8
:100BE40037FB00240460446084608461C46104624F
:100BF40044628462C462046344638463C4630464BB
:100C0400002680F88060C0F88460C0F8886080F8AE
:100C14008C60902004F01CFB046044608460846158
:100C2400C461046244628462C4620463446384638E
:100C3400C463046480F88060C0F88460C0F888608D
:100C440080F88C602F686E6A6B68C7F88830C7F8C4
:100C5400846001242BE0902004F0FAFA002303605E
:100C6400436083608361C361036243628362C362DE
:100C7400036343638363C3630364002380F88030A6
:100C8400C0F88430C0F8883080F88C3055F82410CF
:100C9400621E55F82220C1F88420621C55F82200F7
:100CA400C1F8880055F8241081F88C301446082CBB
:100CB400D1DD002387F88C3086F88C302B6AC6F897
:100CC4008430C6F88870F8BD0B4B186890F88C30E7
:100CD40063B1D0F8883093F88C205AB9012283F894
:100CE4008C20D0F88800044B18607047012380F8EA
:100CF4008C30704700207047AC0000200B4631B1A7
:100D0400084A12688A4203D0002283F88C20704774
:100D1400054909689942F7D0D2F88810014A116050
:100D2400F2E700BFB0000020AC000020034B1868BD
:100D340090F88C30022B00D000207047B0000020C7
:100D44000023022B0CDC00220649CA54064941F850
:100D54002320064A02EB8302002111600133F0E7ED
:100D6400704700BFD8000020C0000020B40000205D
:100D740070B506460D461446FFF7E2FF064B1E60AB
:100D8400064B1D60064B1C60064B074A074920466C
:100D940000F069FD70BD00BFD4000020CC0000202D
:100DA400D000002099100008710F0008490E0008B7
:100DB40070B505460146114B186800F077FB002416
:100DC40009E00F4E2146306800F036FD21463068B8
:100DD40000F01CFD0134022C0BDC04F10E0305EBC6
:100DE400830393ED000AB5EE400AF1EE10FAF1D058
:100DF400E7E7012385F8803070BD00BFCC000020F8
:100E0400D000002008B50023022B01DC0133FBE7EE
:100E1400FFF78CFF90F8803023B990F88C30022BC8
:100E24000AD008BD0146064B1868FFF767FFFFF7B5
:100E340087FFFFF77BFFF0E7FFF7BAFFF1E700BF9B
:100E4400D400002010B5FFF771FF0446436F012B57
:100E540039D001212F2003F005FD00212F2003F0BC
:100E640001FD3A4B59683A4B1A683A4BA3FB0232DC
:100E7400920C02EB8202354B5B685B1A9A42FADCF5
:100E840001212F2003F0EEFC334A13680133136071
:100E9400216D8B421CD0E26D0A44934233DD626CB7
:100EA400934221DA94ED0E0A2C4BD3ED007A30EE06
:100EB400270A83ED000A00231A46214628480068C1
:100EC40000F00CFC29E000212F2003F0CBFCC4E748
:100ED40094ED037AF7EE006AC6EE877AC4ED0E7AD3
:100EE4001E4A00201060D6E71E4C0021206800F046
:100EF40077FC0021206800F0ACFC1B4B01221A7027
:100F0400FFF780FF10E08B420FDD94ED037AF7EEDC
:100F1400006AC6EE877AC4ED0E7A94ED0E0A0021BB
:100F2400104B186800F088FC10BD94ED0E0A0B4BB2
:100F3400D3ED007A30EE270A83ED000A0023012264
:100F440021460748006800F0C9FBE6E7001000E00E
:100F54002000002083DE1B43C0000020B4000020DA
:100F6400CC000020D0000020D800002010B5FFF7EE
:100F7400DDFE0446836F012B39D001212F2003F0BD
:100F840071FC00212F2003F06DFC3A4B59683A4B59
:100F94001A683A4BA3FB0232920C02EB8202354BE5
:100FA4005B685B1A9A42FADC01212F2003F05AFC99
:100FB400334A536801335360616D8B421CD0226EF7
:100FC4000A44934233DDA26C934221DA94ED0F0A72
:100FD4002C4BD3ED017A30EE270A83ED010A01236D
:100FE400002221462848006800F078FB29E000210F
:100FF4002F2003F037FCC4E794ED047AF7EE006A7F
:10100400C6EE877AC4ED0F7A1E4A00205060D6E7F8
:101014001E4C0121206800F0E3FB0121206800F050
:1010240018FC1B4B01225A70FFF7ECFE10E08B42B8
:101034000FDD94ED047AF7EE006AC6EE877AC4ED0C
:101044000F7A94ED0F0A0121104B186800F0F4FB9D
:1010540010BD94ED0F0A0B4BD3ED017A30EE270A45
:1010640083ED010A01231A4621460748006800F06F
:1010740035FBE6E7001000E02000002083DE1B4380
:10108400C0000020B4000020CC000020D0000020CC
:10109400D800002010B5FFF749FE0446C36F012BAA
:1010A40039D001212F2003F0DDFB00212F2003F094
:1010B400D9FB3A4B59683A4B1A683A4BA3FB0232B4
:1010C400920C02EB8202354B5B685B1A9A42FADCA3
:1010D40001212F2003F0C6FB334A93680133936048
:1010E400A16D8B421CD0626E0A44934233DDE26CE4
:1010F400934221DA94ED100A2C4BD3ED027A30EEB0
:10110400270A83ED020A02230022214628480068A8
:1011140000F0E4FA29E000212F2003F0A3FBC4E748
:1011240094ED057AF7EE006AC6EE877AC4ED107A7C
:101134001E4A00209060D6E71E4C0221206800F071
:101144004FFB0221206800F084FB1B4B01229A70A4
:10115400FFF758FE10E08B420FDD94ED057AF7EEB1
:10116400006AC6EE877AC4ED107A94ED100A022163
:10117400104B186800F060FB10BD94ED100A0B4B87
:10118400D3ED027A30EE270A83ED020A022301220C
:1011940021460748006800F0A1FAE6E7001000E0E5
:1011A4002000002083DE1B43C0000020B400002088
:1011B400CC000020D0000020D800002010B4002370
:1011C4009FED477AB0EE476A00E00133022B26DC3C
:1011D4009A1C01EB8202D2ED017AF5EE407AF1EE2F
:1011E40010FAF2D001EB8302D2ED006A77EEE67AD0
:1011F400DFED3C6A67EEA67A03F10E023A4800EB93
:101204008202D2ED016AF8EEE66A87EEA66AB4EECF
:10121400C67AF1EE10FAD8D5B0EE467AD5E781ED6C
:101224000C6AD1F888406CB30023DFED2D6A00E02E
:101234000133022B4EDC9A1C01EB8202D2ED017ABF
:10124400F5EE407AF1EE10FAF2D004EB8302D2ED1F
:10125400006A77EEE67ADFED236A67EEA67A03F199
:101264000E02214800EB820292ED016AB8EEC66AD2
:10127400C7EE866AB4EEE67AF1EE10FAD8D5B0EE8F
:10128400667AD5E70023DFED166A00E00133022B0E
:1012940020DC9A1C01EB8202D2ED017AF5EE407A51
:1012A400F1EE10FAF2D0DFED0F6A67EEA67A03F1E1
:1012B4000E020D4800EB820292ED016AB8EEC66A96
:1012C400C7EE866AB4EEE67AF1EE10FADED5B0EE39
:1012D400667ADBE7C1ED0D6A5DF8044B704700BF29
:1012E4000000000000247449CC6D00080023022B88
:1012F4001DDC9A1C01EB820292ED017A01EB830260
:10130400D2ED007A37EE677A91ED0C6ADFED2A7A36
:10131400C6EE276AC7EE267A77EEA77A87EEA67A14
:101324009A1D01EB820282ED007A0133DFE7D1F8E6
:10133400880090F88C300BB30023022B3ADC9A1C03
:1013440001EB820292ED017A00EB8302D2ED007A86
:1013540037EE677A91ED0D6ADFED177AC6EE276AEC
:10136400C7EE267A77EEA77A87EEA67A03F108020B
:1013740001EB820282ED017A0133DEE70023022BC6
:1013840018DC9A1C01EB8202D2ED016A91ED0D6A20
:10139400DFED097A86EE277AC6EE877A77EEA77AAA
:1013A400C7EE876A03F1080201EB8202C2ED016A0B
:1013B4000133E4E7704700BF002474490023022B83
:1013C40070DC30B416E003F1100201EB82025268C3
:1013D40003F1140051F82000121A03F11A0051F815
:1013E4002000121A03F1160001EB80004260013361
:1013F400022B55DC91ED0C7A01EB8302D2ED007ADD
:101404009A1C01EB8202D2ED016A77EEA67A67EEAE
:10141400277AF6EE006A67EEA67A03F11402FDEE6F
:10142400E77A17EE900A41F82200D1F8884094F840
:101434008C20EAB10022022AC5DC04EB8200D0ED44
:10144400007A901C01EB8000D0ED016A77EEA67A59
:1014540067EE277AF6EE006A67EEA67A02F11A00C2
:10146400FDEEE77A17EE905A41F820500132E2E798
:101474000022022AA7DC901C01EB8000D0ED017A47
:1014840067EE277AF6EE006A67EEA67A02F11A0092
:10149400FDEEE77A17EE904A41F820400132E8E782
:1014A40030BC704770470000000000002DE9F84F81
:1014B4002DED088B0D4600249BE004F1140355F830
:1014C4002330002B40F3B680A31D05EB8303D3ED3B
:1014D400007AF0EE086A87EEA67AFFEE006A86EEDE
:1014E400877A17EE108A05EB840393ED007AF6EE03
:1014F400006A67EEA67A87EE278A88F00040FEF736
:10150400B3FF06460F464046FEF7AEFF41EC190B0B
:101514009FED64BBB0EE4B1AF0EE6B1A41EC100B6E
:1015240004F014F959EC108B18EE100AFEF79CFF26
:1015340041EC180B9FED5DABB0EE4A1AF0EE6A1A5F
:1015440041EC100B04F002F942464B4651EC100BEF
:10155400FEF72CFE41EC100B04F098FA53EC102B20
:1015640030463946FEF722FE41EC100B03F0E2FF51
:1015740051A3D3E9002351EC100BFEF7CDFF8046B5
:101584008946B0EE4B1AF0EE6B1AB0EE490AF0EE53
:10159400690A04F0DBF85BEC10ABB0EE4A1AF0EE2B
:1015A4006A1AB0EE480AF0EE680A04F0CFF8524620
:1015B4005B4651EC100BFEF7F9FD41EC100B04F007
:1015C40065FA53EC102B30463946FEF7EDFD41EC3D
:1015D400100B03F0AFFF53EC102B40464946FEF7C7
:1015E400E5FDFFF749FA04F10E0305EB83031860E8
:1015F4000134022C51DC04F1160305EB83035B6810
:10160400002B7FF75AAF04F1140355F82330002B55
:101614007FF453AFA31C05EB830393ED017AF7EE3C
:10162400006AC6EE877A04F10E0305EB8303C3ED6B
:10163400007ADDE7D5F8883093F88C20DAB1A21D62
:1016440005EB8202D2ED007AF0EE086A87EEA67A04
:10165400F7EE006A86EE877A17EE108A03EB8403AE
:1016640093ED007AB1EE477AF6EE006A67EEA67A59
:1016740087EE278A41E7A31D05EB8303D3ED006AB8
:10168400B0EE087AC6EE877AB7EE007AC7EE277A0C
:1016940017EE908A9FED078A2FE7BDEC088BBDE813
:1016A400F88F00BF000000000000004000000000B0
:1016B40000000840000000000000000080842E416B
:1016C40038B504460D46FFF779FD29462046FFF755
:1016D4000DFE29462046FFF771FE38BDEAB391EDB1
:1016E4000C7AF6EE007A67EE277AF4EEC07AF1EE21
:1016F40010FA14DD9A1D01EB820292ED007ADFEDFF
:10170400376AC0EE267A67EEA77A67EE277A86EE06
:10171400A77A0E3301EB830383ED007A70479A1D99
:1017240001EB8202D2ED007A30EE470ADFED2B6A3C
:1017340080EE267A27EE077A67EEC77A9A1C01EBC9
:10174400820292ED017A77EE877A86EEA77A0E33DB
:1017540001EB830383ED007A704791ED0D7AF6EE89
:10176400007A67EE277AF4EEC07AF1EE10FA1CDD07
:1017740003F1080201EB8202D2ED017ADFED176A70
:1017840080EE267A27EE077A67EEC77A9A1C01EB79
:10179400820292ED017A77EE877A86EEA77A0E338B
:1017A40001EB830383ED007A704703F1080201EB38
:1017B4008202D2ED016A30EE470A9FED087AC0EE4C
:1017C400077A67EEA77A66EEA77AC7EE276A02332E
:1017D40001EB8301C1ED016A704700BF0024744925
:1017E40008B5023100EB8101486803F04CF908BDEB
:1017F40038B505460024022C07DCA31C05EB830343
:10180400586803F040F90134F5E738BD08B50231F2
:1018140000EB8101486803F0EFF908BD38B50546CF
:101824000024022C07DCA31C05EB8303586803F097
:10183400E3F90134F5E738BD08B5023100EB810066
:101844000122FCEEC07A17EE901A406803F0EEFA1B
:1018540008BD08B5023100EB810000221146406842
:1018640003F016FB08BD70B5054616461C46006815
:1018740003F0EDF93146686803F0E9F92146A868F8
:1018840003F0E5F90024022C05DC21462846FFF785
:10189400E0FF0134F7E72846FFF7AAFF70BD000018
:1018A40030B587B005461B4B93E8070006AC04E946
:1018B40007006C4684E807000024022C28DCA20000
:1018C400AB180021196004F11C0305EB830301210B
:1018D400596006AB1A4452ED067AA31C9B000E49CC
:1018E400194491ED017A67EE877A2B44C3ED017AAE
:1018F40012ED030A80EE070A03F0E4FE04F110037C
:1019040005EB8303BDEEC00A83ED010A0134D4E77D
:1019140007B030BDC06D0008446E000830B58BB010
:10192400254B1B6813F0010F1ED02449244803F0F3
:10193400CEFB6846FFF750F96846FFF7C5F9044641
:10194400FFF7AEFF1F4D21462846FFF7B9FE1E4C98
:10195400224629466846FFF70BFAFFF753FA20465A
:10196400FFF75CFF0BB030BD4FF4867003F070FCE2
:101974000546164903F0A8F9134C25604FF4867008
:1019840003F066FC05464FF0804103F09DF9656065
:101994004FF4867003F05CFC05464FF0804103F081
:1019A40093F9A5602368E360636823616561024B72
:1019B40001221A60B9E700BFDC000020BC6E0008F9
:1019C4003C010020E0000020E40000200000014071
:1019D4007047000000B595B0002201921E4B196CAF
:1019E40041F0805119641B6C03F080530193019BF7
:1019F40002921A490B6823F4404343F400430B60FA
:101A04000B6803F440430293029B022103910123D8
:101A140006931023079309910A920B934FF4A8732A
:101A24000C9304230D9307230E9303A801F010F9DC
:101A340000B1FEE70F230F930221109100231193AD
:101A44004FF48052129213930FA801F037FB00B1A8
:101A5400FEE715B05DF804FB00380240007000405A
:101A6400DFF834D0002103E00C4B5B5843500431C1
:101A74000B480C4B42189A42F6D30B4A02E000235F
:101A840042F8043B094B9A42F9D302F097FB03F066
:101A9400A3FC03F0CDFB70470080012034710008E3
:101AA400000000209000002090000020C0030020CF
:101AB400FEE708B502F050FB08BD704710B50446B8
:101AC4000E4B18784FF47A73B3FBF0F30C4A10689A
:101AD400B0FBF3F000F0AAF868B90F2C01D901208B
:101AE4000AE0002221464FF0FF3000F04BF8054B8E
:101AF4001C60002000E0012010BD00BF0000002099
:101B0400200000200400002008B50B4B1A6842F4A2
:101B140000721A601A6842F480621A601A6842F409
:101B240080721A60032000F01BF80020FFF7C6FF44
:101B3400FFF7C3FF002008BD003C0240034A1168C0
:101B4400034B1B780B441360704700BFAC030020A9
:101B540000000020014B1868704700BFAC03002050
:101B6400074AD36823F4E0631B041B0C000200F44F
:101B7400E060184340F0BF6040F40030D06070472C
:101B840000ED00E030B4174BDB68C3F30223C3F16C
:101B94000704042C28BF04241D1D062D01D9033B72
:101BA40000E000234FF0FF3505FA04F421EA0401B4
:101BB400994005FA03F322EA03031943002809DBD9
:101BC4000901C9B200F1604000F5614080F80013DA
:101BD40030BC704700F00F000901C9B2024B195420
:101BE400F6E700BF00ED00E014ED00E0002807DB9D
:101BF40000F01F02400901239340024A42F82030BA
:101C0400704700BF00E100E000280CDB00F01F0279
:101C14004009012393402030034A42F82030BFF3A7
:101C24004F8FBFF36F8F704700E100E00138B0F1D0
:101C3400807F0AD2064B5860064AF02182F82310AE
:101C44000020986007221A6070470120704700BF87
:101C540010E000E000ED00E0002808DB00F01F02C7
:101C64004009012393406030014A42F82030704714
:101C740000E100E0704708B5FFF7FCFF08BD90F8ED
:101C84003530DBB2022B03D080234365012070473B
:101C9400052380F835300268136823F001031360CC
:101CA4000020704790F835007047000008B5054BD8
:101CB4005B69034200D108BD024B586103F06EFB1F
:101CC400F9E700BF003C014090F83E30DBB2402B06
:101CD40010D00369B3F5804F1BD0036D002B3CD1AA
:101CE400436CC3F3C813026803F0060343F0F00324
:101CF40013617047036D2BB9436C026803F0FE0354
:101D040013617047436C026843F00103DBB2136153
:101D1400704790F83D30DBB2212B0FD0436C026842
:101D240043F00103DBB21361436B6BB1DB6B7BB13B
:101D34000268536843F4006353607047436C02685D
:101D440003F0FE031361EFE7826B002AEED107E094
:101D5400836BDB6B002BEBD102E0036D012B00D016
:101D64007047436CC3F3C813026803F0060343F0DF
:101D7400F1031361F4E7436C0268DBB21361436B54
:101D84003BB1DB6B4BB10268536843F400635360AF
:101D94007047826B002AF4D1FAE7836BDB6B002B6C
:101DA400F1D1F5E710B48BB090F83E30DAB2C16AE5
:101DB400046B90F83D30DBB2222B0BD00023099347
:101DC40003685A6909929B690993099B0BB05DF8F2
:101DD400044B7047036D0BB9402A17D0036D1BB930
:101DE4000369B3F5404F19D0438D9BB2002B25D125
:101DF400029303685A6902929A690292029A1A68D3
:101E040042F400721A6000230365DFE7009303685D
:101E14005A6900929B690093009BD7E700230193C2
:101E240003685A6901929A690192019A1A6842F404
:101E340080721A60036D01330365C7E7438D9BB25B
:101E4400012B25D0438D9BB2022B7BD002681368F3
:101E540043F48063136003685A6812F4006F0ED071
:101E640011F5803F07D0012905D0082903D0102996
:101E740001D0202903D15A6842F480525A600023C9
:101E8400089303685A6908929B690893089BBAE708
:101E940011F5803F11D0082934D0202932D0122CDA
:101EA4002ED0042940D002293ED010293CD002680B
:101EB400136823F4806313603BE00268136823F41F
:101EC4008063136003685A6812F4006F0CD01A68B8
:101ED40022F480621A600023039303685A69039210
:101EE4009B690393039B8EE7002204925A69049230
:101EF4009A690492049A1A6842F400721A6082E79A
:101F04000129CED00268136823F480631360002390
:101F1400069303685A6906929A690692069A1A68A1
:101F240042F400721A606EE70268136843F4806337
:101F340013600023059303685A6905929B6905930E
:101F4400059B60E704290ED002290CD010290AD081
:101F54000268136823F4806313600268136843F40F
:101F64000063136004E00268136843F48063136041
:101F740003685A6812F4006F0ED011F5803F07D041
:101F8400012905D0082903D0102901D0202903D123
:101F94005A6842F480525A600023079303685A69CE
:101FA40007929B690793079B2DE7438D9BB253B11F
:101FB400426A036812781A61436A01334362438DAB
:101FC400013B9BB243857047438D9BB253B1036879
:101FD4001A69436A1A70436A01334362438D013BB1
:101FE4009BB243857047C36AB3F52A0F04D0C36A12
:101FF400B3F12A4F03D070470123C362704708230B
:10200400C362F8E730B482B090F83D4004F028048D
:10201400282C34D1002936D0002A36D090F83C4000
:10202400012C34D0012480F83C400468256815F064
:10203400010F03D1256845F00105256005682C686A
:1020440024F400642C60292480F83D40202480F886
:102054003E400024046441624285428D0285C3628D
:10206400019403685A6901929A690192019A80F86D
:102074003C405A6842F4E0625A60204600E0022084
:1020840002B030BC70470120FAE70120F8E70220D3
:10209400F6E730B482B090F83D4004F02804282CD0
:1020A40034D1002936D0002A36D090F83C40012C97
:1020B40034D0012480F83C400468256815F0010FF1
:1020C40003D1256845F00105256005682C6824F4D2
:1020D40000642C602A2480F83D40202480F83E408F
:1020E4000024046441624285428D0285C3620194E6
:1020F40003685A6901929A690192019A80F83C40F6
:102104005A6842F4E0625A60204600E0022002B0BD
:1021140030BC70470120FAE70120F8E70220F6E717
:1021240090F83D30DBB2202B01D0022070472823E9
:1021340080F83D3003681A6812F0010F03D11A6861
:1021440042F001021A600268136843F4806313606A
:102154000268536843F4407353600020704770472B
:10216400704708B590F83D30DAB2438D9BB27BB12D
:10217400416A036809781961436A01334362438DF4
:10218400013B9BB24385438D9BB20BB9292A00D0F6
:1021940008BD0268536823F48063536021230363FA
:1021A400282380F83D3002F01EFAF1E708B590F8D4
:1021B4003D30DAB2438D9BB27BB103681969436A3F
:1021C4001970436A01334362438D013B9BB24385DB
:1021D400438D9BB20BB92A2A00D008BD026853680C
:1021E40023F48063536022230363282380F83D3063
:1021F40002F0DFF9F1E708B590F83D3003F0280369
:10220400282B07D003686FF002025A61002380F87C
:102214003C3008BD0268536823F48063536011F0B6
:10222400040F0BD0002311F0800F09D18289002103
:1022340080F83C10194602F077F9EAE70123F2E747
:10224400028BF4E708B590F83D30DBB2C26A082A85
:1022540001D0202A01D1282B06D0212B1ED00368BF
:102264006FF480625A6108BD1A4BC36202685368F6
:1022740023F4E063536003686FF480625A61026878
:10228400136823F48063136000230363202280F81F
:102294003D2080F83E3002F070F9E4E70D4BC36254
:1022A40021230363202380F83D30002380F83E304F
:1022B4000268536823F4E063536003686FF4806238
:1022C4005A610268136823F48063136002F08BF987
:1022D400C9E700BF0000FFFF704710B590F83D301C
:1022E400DBB290F83E20D2B2C46A018D09B9212B29
:1022F40004D0212B3BD0402A37D010BD082C04D069
:10230400202C02D014F5803F19D10268536823F4BD
:10231400E06353600268136843F40073136000239E
:102324000363202380F83D3090F83E30DBB2402B2D
:1023340015D0002380F83E30FFF711FFDDE7026877
:10234400536823F4E063536011230363002380F88C
:102354003E30202380F83D30FFF701FFCDE7002316
:1023640080F83E30FFF7B8FFC7E7222BC5D1438D75
:102374009BB22BB90268536823F480635360BCE7B3
:1023840090F83E30DBB2402B0BD0426A03681278DF
:102394001A61436A01334362438D013B9BB2438517
:1023A400ABE7036D9BB9C36C012B08D0836CC3F3FB
:1023B400072302681361036D013303659DE7836C92
:1023C4000268DBB21361036D0233036595E7036DA5
:1023D400012B18D0036D022B8FD190F83D30DBB266
:1023E400222B18D090F83D30DBB2212B85D1426AE4
:1023F400036812781A61436A01334362438D013BD7
:102404009BB2438579E7836C0268DBB21361036D89
:102414000133036571E70268136843F48073136042
:102424006BE708B5C26A90F83D30DBB2212B00D0CF
:1024340008BD438D9BB25BB1426A036812781A618E
:10244400436A01334362438D013B9BB24385EFE70B
:10245400082A04D0202A02D012F5803F19D102683C
:10246400536823F4E06353600268136843F4007311
:10247400136000230363202380F83D3090F83E303E
:10248400DBB2402B15D0002380F83E30FFF767FE07
:10249400CEE70268536823F4E063536011230363B7
:1024A400002380F83E30202380F83D30FFF757FEAC
:1024B400BEE7002380F83E30FFF70EFFB8E7704711
:1024C40008B590F83D30DBB2222B00D008BD438D17
:1024D4009BB2032B14D903681A69436A1A70436ABE
:1024E40001334362438D013B9BB24385438D9BB2D1
:1024F400032BEBD10268536823F480635360E5E750
:10250400C26A022AE2D0012BE0D80268136823F4DD
:10251400806313600268536823F4E06353600368C4
:102524001A69436A1A70436A01334362438D013B5B
:102534009BB24385202380F83D3090F83E30DBB2D7
:10254400402B07D0002380F83E3012230363FFF7AB
:1025540007FEBBE7002380F83E300363FFF7AFFFBD
:10256400B4E708B5C26A438D9BB2042B13D0438DE4
:102574009BB2032B20D0438D9BB2022B36D0036831
:102584001A69436A1A70436A01334362438D013BFB
:102594009BB243850FE00268536823F48063536061
:1025A40003681A69436A1A70436A01334362438DAC
:1025B400013B9BB2438508BD01684B6823F48063EB
:1025C4004B60042A06D0022A04D00268136823F45C
:1025D4008063136003681A69436A1A70436A01339B
:1025E4004362438D013B9BB24385E4E7012A0BD050
:1025F400102A09D0042A36D0022A34D0026813687B
:1026040043F40073136004E00268136823F48063E6
:10261400136003681A69436A1A70426A531C43625E
:10262400438D013B9BB2438503681B695370436A26
:1026340001334362438D013B9BB243850268536877
:1026440023F440735360202380F83D3090F83E30EB
:10265400DBB2402B0DD0002380F83E3012230363FD
:10266400FFF77EFDA7E70268136843F480631360F5
:10267400CFE7002380F83E300363FFF720FF9AE79B
:10268400704710B5806B90F83D20416B0023CB63FD
:10269400816BCB630468216821F4806121604385E8
:1026A400416B0B65816B0B6501680B6823F00103BB
:1026B4000B6090F83D30DBB2602B0DD0D2B202F04B
:1026C4002802282A12D0202380F83D30002380F8E5
:1026D4003E3001F08FFF10BD202380F83D300023F1
:1026E40080F83E300364FFF7CBFFF4E70268136819
:1026F40043F0010313600268136843F480631360BA
:1027040000230363282380F83D30E2E710B5044634
:1027140090F83D30DBB290F83E20D2B2102A33D08C
:1027240003F02802282A37D02268526812F4006F76
:1027340004D1602B02D0202384F83D30002323638E
:1027440084F83E3023685A6812F4006F48D05A68FF
:1027540022F400625A60626B92F83530DBB2012BCE
:1027640020D0424B1365606BFFF789FA002849D0EB
:102774002268136823F001031360202384F83D309A
:10278400606B036D98473DE0222BC9D101680A684C
:1027940022F400620A60C3E700232363282384F839
:1027A4003D30CFE7A36B314A1A65A06BFFF767FA98
:1027B40040B323685A6912F0400F05D01A69636A5E
:1027C4001A70636A013363622268136823F0010399
:1027D4001360202384F83D30A06B036D984711E00B
:1027E40094F83D20D2B2602A16D05A6912F0400FF4
:1027F40005D01A69636A1A70636A013363622046FA
:1028040001F0F8FE94F83D30DBB2226C12F0040FB4
:1028140001D0282B18D010BD202284F83D2000229E
:1028240022645A6912F0400F05D01A69636A1A705B
:10283400636A013363622268136823F0010313603F
:102844002046FFF71DFFDDE72268536823F4E063A9
:102854005360074BE36200232363202284F83D2066
:1028640084F83E30204601F088FED4E7872600082D
:102874000000FFFF30B583B0044690F83D50EDB240
:102884000268536823F4E0635360002301930368F0
:102894005A6901921A6842F001021A60019B0268A7
:1028A400136823F48063136003685A6812F4006F9A
:1028B40038D0222D21D02A2D1FD0426B12685268A5
:1028C40092B24285428D92B21AB1026C42F0040275
:1028D40002645A6822F400625A60606BFFF7E2F9FE
:1028E40001281FD0636B434A1A65606BFFF7C7F971
:1028F400C0B1606B036D984714E0A26B1268526814
:1029040092B26285628D92B21AB1226C42F00402D4
:1029140022645A6822F400625A60A06BFFF7C2F97D
:10292400012840D1638D9BB223B323685A6912F006
:10293400040F09D01A69636A1A70636A0133636207
:10294400638D013B9BB2638523685A6912F0400F83
:1029540009D01A69636A1A70636A01336362638D0A
:10296400013B9BB26385638D9BB21BB1236C43F027
:1029740004032364236C13BB2A2D25D094F83D3023
:10298400DBB2282B29D0236B222B01D0222D19D185
:1029940000232363202284F83D2084F83E3020461F
:1029A40001F007FE0EE0A36B124A1A65A06BFFF755
:1029B40066F90028B6D0A06B036D9847B2E72046AD
:1029C400FFF7A4FE03B030BD00232363282384F85B
:1029D4003D30204601F0EDFDD0E7074BE3620023D4
:1029E4002363202284F83D2084F83E30204601F001
:1029F400C4FDE7E7872600080000FFFF70B5044622
:102A040002685568C66A90F83E30DBB290F83D1013
:102A1400102B14D0C8B2402B11D0236C002B71D0D2
:102A24005369002113F0020F6FD015F4007F6CD0AE
:102A3400236C03B191692046FFF7DDFB70BD9069FB
:102A4400536913F0010105D1B6F52A0FF6D0B6F19A
:102A54002A4FF3D011B115F4007F25D113F0080FDC
:102A640002D015F4007F26D113F0020F02D015F422
:102A7400007F24D110F0040F29D0526812F4006FA3
:102A8400DCD113F0800F05D015F4806F02D013F061
:102A9400040F18D013F0040FD0D015F4007FCDD05C
:102AA4002046FFF7BEFCC9E72046FFF79CFA204604
:102AB400FFF70AF9C2E72046FFF75DF9BEE72046B3
:102AC400FFF770F9BAE72046FFF707FCB6E752684C
:102AD40012F4006FB2D113F0400F05D015F4806FDB
:102AE40002D013F0040F09D013F0040FA6D015F48C
:102AF400007FA3D02046FFF734FD9FE72046FFF771
:102B0400DFFC9BE7916953698CE713F0100F02D047
:102B140015F4007F17D1212819D0292817D013F0D4
:102B2400400F05D015F4806F02D013F0040F27D0A6
:102B340013F0040F82D015F4007F3FF47FAF2046DA
:102B4400FFF742FA7AE72046FFF794FE76E713F0A0
:102B5400800F05D015F4806F02D013F0040F0BD052
:102B640013F0040F3FF46AAF15F4007F3FF466AF2F
:102B74002046FFF71AFA61E72046FFF7F2FA5DE70D
:102B84002046FFF713FB59E7F8B5044603685D696F
:102B94005F6815F4807F07D017F4807F3BD06FF413
:102BA40080725A61012600E0002615F4007F08D0E7
:102BB40017F4807F05D046F0020623686FF4007294
:102BC4005A6115F4806F18D017F4807F15D094F8EB
:102BD4003E30DBB2628D91B294F83D20D2B2206BCC
:102BE400202B1AD023686FF480625A6146F00406E1
:102BF40094F83E30DBB2102B1DD015F4006F08D0D2
:102C040017F4807F05D046F0080623686FF400624D
:102C14005A61B6B9F8BD0026C7E70029E2D1212AD6
:102C240005D0292A03D0282ADCD12128DAD120464C
:102C3400FFF708FBE1E72268136843F400731360AD
:102C4400DBE7236C1E4326642046FFF75FFDE1E7C4
:102C5400002800F0B98170B582B00446036813F00F
:102C6400010F3BD0A64B9B6803F00C03042B2CD024
:102C7400A34B9B6803F00C03082B21D06368B3F5C6
:102C8400803F4FD0B3F5A02F52D09D4B1A6822F449
:102C940080321A601A6822F480221A606368002B5A
:102CA40050D0FEF757FF0546954B1B6813F4003FC1
:102CB40014D1FEF74FFF401B6428F5D903208AE1A5
:102CC4008F4B5B6813F4800FD8D08D4B1B6813F4C3
:102CD400003F03D06368002B00F07881236813F071
:102CE400020F54D0864B9B6813F00C0F3ED0844BDC
:102CF4009B6803F00C03082B33D0E368002B67D0E8
:102D0400804B01221A60FEF725FF05467C4B1B68A9
:102D140013F0020F53D1FEF71DFF401B0228F5D913
:102D2400032058E1764A136843F480331360B5E70F
:102D3400734B1A6842F480221A601A6842F4803293
:102D44001A60ABE7FEF706FF05466D4B1B6813F4EC
:102D5400003FC3D0FEF7FEFE401B6428F5D90320D4
:102D640039E1674B5B6813F4800FC6D1644B1B6871
:102D740013F0020F03D0E368012B40F02981604A6D
:102D8400136823F0F803216943EAC103136023683D
:102D940013F0080F40D0636963B35B4B01221A60E0
:102DA400FEF7D8FE0546564B5B6F13F0020F33D186
:102DB400FEF7D0FE401B0228F5D903200BE1504A50
:102DC400136823F0F803216943EAC1031360DEE7C3
:102DD4004C4B00221A60FEF7BDFE0546484B1B68AB
:102DE40013F0020FD3D0FEF7B5FE401B0228F5D92D
:102DF4000320F0E0444B00221A60FEF7ABFE0546C8
:102E04003F4B5B6F13F0020F06D0FEF7A3FE401B8F
:102E14000228F5D90320DEE0236813F0040F78D0EC
:102E2400374B1B6C13F0805F33D100230193344B79
:102E34001A6C42F080521A641B6C03F080530193A5
:102E4400019B0125314B1B6813F4807F23D0A368B9
:102E5400012B34D0052B38D0294B1A6F22F00102F4
:102E64001A671A6F22F004021A67A368002B36D07F
:102E7400FEF770FE0646224B1B6F13F0020F47D17C
:102E8400FEF768FE801B41F288339842F3D9032091
:102E9400A1E00025D6E71D4A136843F4807313604C
:102EA400FEF758FE0646194B1B6813F4807FCED1FB
:102EB400FEF750FE801B0228F5D903208BE0104A50
:102EC400136F43F001031367CFE70D4B1A6F42F002
:102ED40004021A671A6F42F001021A67C5E7FEF787
:102EE40039FE0646064B1B6F13F0020F10D0FEF797
:102EF40031FE801B41F288339842F3D903206AE003
:102F04000038024000004742800E474200700040F3
:102F1400E5B9A369002B5DD0314A926802F00C0236
:102F2400082A5AD0022B17D02E4B00221A60FEF723
:102F340011FE04462A4B1B6813F0007F42D0FEF7B3
:102F440009FE001B0228F5D9032044E0244A136C2F
:102F540023F080531364DCE7224B00221A60FEF74F
:102F6400F9FD05461E4B1B6813F0007F06D0FEF7E3
:102F7400F1FD401B0228F5D903202CE0E369226A05
:102F84001343626A43EA8213A26A5208013A43EA8B
:102F94000243E26A43EA0263114A5360114B01227D
:102FA4001A60FEF7D7FD04460D4B1B6813F0007F33
:102FB40006D1FEF7CFFD001B0228F5D903200AE055
:102FC400002008E0002006E001207047012002E014
:102FD400012000E0002002B070BD0120FBE700BF2B
:102FE4000038024060004742314B9B6803F00C03F9
:102FF400042B58D0082B58D170B52D4B5A6802F0C9
:103004003F025B6813F4800F2AD0294B5868C0F341
:1030140088100546002643011B1A66EB0604A1012D
:1030240041EA93619801C01A61EB0401CB0043EAC1
:103034005073C4001946601946EB01014B0243EA80
:10304400D0534402204619463346FDF765FD184B1C
:103054005B68C3F3014301335B00B0FBF3F070BD65
:10306400134B5868C0F388100546002643011B1A09
:1030740066EB0604A10141EA93619801C01A61EB71
:103084000401CB0043EA5073C4001946601946EBAF
:1030940001018B0243EA90538402204619463346C9
:1030A400FDF73AFDD3E7034870470348704700BF74
:1030B4000038024000127A000024F400002800F0D6
:1030C4009A8070B50446504B1B6803F00F038B4283
:1030D40008D2CBB24C4A1370136803F00F038B422F
:1030E40040F08B80236813F0020F17D013F0040F05
:1030F40004D0464A936843F4E0539360236813F082
:10310400080F04D0414A936843F4604393603F4AF4
:10311400936823F0F003A068034393600D4623688B
:1031240013F0010F32D06368012B21D09A1E012ABB
:1031340025D9364A126812F0020F60D033498A68E2
:1031440022F0030213438B60FEF704FD06462F4B67
:103154009B6803F00C036268B3EB820F16D0FEF792
:10316400F9FC801B41F288339842F0D9032041E0F6
:10317400264A126812F4003FE0D101203AE0234AC3
:10318400126812F0007FD9D1012033E01E4B1B6876
:1031940003F00F03AB4207D9EAB21B4B1A701B684A
:1031A40003F00F03AB422CD1236813F0040F06D0B5
:1031B400164A936823F4E053E1680B439360236851
:1031C40013F0080F07D0114A936823F46043216970
:1031D40043EAC1039360FFF707FF0C4B9B68C3F3FB
:1031E40003130B4AD35CD8400A4B18600020FEF747
:1031F40065FC002070BD012070470120FAE7012022
:10320400F8E70120F6E700BF003C02400038024026
:103214000870000820000020014B1868704700BFA8
:103224002000002008B5FFF7F7FF044B9B68C3F3A9
:103234008223034AD35CD84008BD00BF0038024053
:103244001870000808B5FFF7E7FF044B9B68C3F349
:103254004233034AD35CD84008BD00BF0038024063
:10326400187000080F2303600B4B9A6802F00302E6
:1032740042609A6802F0F00282609A6802F4E052B6
:10328400C2609B68DB0803F4E0530361034B1B68D3
:1032940003F00F030B60704700380240003C02400B
:1032A400032303600E4BD3F88420C2F388124260D8
:1032B400D3F88420C2F302728260996801F4F81191
:1032C4001A6F02F440720A43C260D3F88C3013F0D0
:1032D400807F02D100230374704701230374704775
:1032E4000038024010B504460368DA6812F4807F9F
:1032F40003D09B6813F4805F0FD12368DA6812F45B
:10330400007F03D09B6813F4005F0FD10C4B4FF484
:1033140000325A610123637710BD00F039FF22683F
:10332400D368DBB263F4C073D360E6E7204600F0F1
:1033340009F82268D368DBB263F42073D360E5E74D
:10334400003C01407047000070B4036A23F001039D
:103354000362036A4668826922F073020C6844EAD5
:10336400020523F002028B6813430D4CA04209D0DE
:103374000B4CA0420DD0466085614A6842630362EB
:1033840070BC704723F00803CA68134323F0040396
:10339400EEE726F440764A6932438E691643EAE73B
:1033A4000000014030B4036A23F480730362036AAB
:1033B4004568C26922F073020C68224323F4007347
:1033C4008C6843EA04230F4CA04209D00D4CA04260
:1033D4000ED04560C2614A68C263036230BC704764
:1033E40023F40063CC6843EA042323F48063EDE709
:1033F40025F440554C6945EA04158C6945EA0415E1
:10340400E7E700BF0000014030B4036A23F48053AF
:103414000362036A4468C26922F4E6420D6842EA20
:10342400052223F400538D6843EA0533074DA8426F
:1034340006D04460C2614A680264036230BC7047CB
:1034440024F480444D6944EA8514F2E70000014005
:1034540030B4046A24F0100404628469056A24F414
:10346400407444EA022222F470421B039BB21A43C2
:1034740025F0A005090101F0A00129438261016240
:1034840030BC704730B4046A24F480740462C469A4
:10349400056A24F00304224322F0F0021B01DBB28C
:1034A4001A4325F42065090201F420612943C2610D
:1034B400016230BC704730B4046A24F4805404625E
:1034C400C469056A24F4407444EA022222F4704276
:1034D4001B039BB21A4325F42045090301F4204140
:1034E4002943C261016230BC7047022380F83D3039
:1034F4000268936803F00703062B03D0136843F0B4
:1035040001031360012380F83D30002070470268F6
:10351400D36843F00103D3600268936803F00703A0
:10352400062B03D0136843F0010313600020704797
:103534000268D36823F00103D3600368196A41F277
:103544001112114208D1196A40F24442114203D1C6
:103554001A6822F001021A60002070477047704711
:1035640010B5044603681A6912F0020F11D0DA6824
:1035740012F0020F0DD06FF002021A6101230377DB
:1035840003689B6913F0030F70D001F0E5FC00237E
:10359400237723681A6912F0040F12D0DA6812F044
:1035A400040F0ED06FF004021A61022323772368FC
:1035B4009B6913F4407F5FD0204601F0CDFC0023CB
:1035C400237723681A6912F0080F12D0DA6812F010
:1035D400080F0ED06FF008021A61042323772368C2
:1035E400DB6913F0030F4ED0204601F0B5FC002335
:1035F400237723681A6912F0100F12D0DA6812F0D8
:10360400100F0ED06FF010021A610823237723687D
:10361400DB6913F4407F3DD0204601F09DFC00237C
:10362400237723681A6912F0010F03D0DA6812F0C5
:10363400010F36D123681A6912F0800F03D0DA68BB
:1036440012F0800F34D123681A6912F0400F03D0AE
:10365400DA6812F0400F32D123681A6912F0200F91
:1036640003D0DA6812F0200F30D110BD01F078FCDD
:103674002046FFF773FF8AE7204601F071FC2046DD
:10368400FFF76CFF9BE7204601F06AFC2046FFF73A
:1036940065FFACE7204601F063FC2046FFF75EFFC0
:1036A400BDE76FF001021A61204601F05DFCC1E73D
:1036B4006FF080021A61204600F096FBC3E76FF0BA
:1036C40040021A612046FFF74AFFC5E76FF0200267
:1036D4001A61204600F087FBC7E700000368254A0B
:1036E40090420ED0B0F1804F0BD0A2F57C429042B4
:1036F40007D002F58062904203D002F580629042C6
:1037040003D123F070034A6813431A4A90421AD033
:10371400B0F1804F17D0A2F57C42904213D002F54D
:10372400806290420FD002F5806290420BD002F585
:103734009A32904207D002F58062904203D002F59B
:103744008062904203D123F44073CA68134323F088
:1037540080034A69134303608B68C3620B68836206
:10376400044B984202D00123436170470B69036301
:10377400F9E700BF00000140B0B110B5044690F86D
:103784003D3063B1022384F83D30214651F8040BE7
:10379400FFF7A4FF012384F83D30002010BD80F81A
:1037A4003C3000F055FEEDE70120704730B4036A69
:1037B40023F010030362036A4468826922F4E64238
:1037C4000D6842EA052223F020038D6843EA0513BD
:1037D4000E4DA84209D00D4DA8420ED0446082611E
:1037E4004A688263036230BC704723F08003CD686B
:1037F40043EA051323F04003EDE724F440644D69E4
:1038040044EA85048D6944EA8504E7E70000014041
:1038140090F83C30012B28D010B50446012380F8E1
:103824003C30022380F83D300C2A0BD8DFE802F04C
:10383400070A0A0A110A0A0A150A0A0A190000687C
:10384400FFF782FD012384F83D30002084F83C001A
:1038540010BD0068FFF7AAFFF4E70068FFF7A2FDB8
:10386400F0E70068FFF7D0FDECE70220704738B5B9
:1038740090F83C30012B66D00D460446012380F8B5
:103884003C30022380F83D300C2A1AD8DFE802F0DD
:103894000719191920191919341919194700006839
:1038A400FFF752FD2268936943F00803936122688D
:1038B400936923F0040393612268936929690B4394
:1038C4009361012384F83D30002084F83C0038BD26
:1038D4000068FFF76BFF2268936943F40063936108
:1038E4002268936923F48063936122689369296948
:1038F40043EA01239361E4E70068FFF753FD22687C
:10390400D36943F00803D3612268D36923F0040325
:10391400D3612268D36929690B43D361D1E7006875
:10392400FFF772FD2268D36943F40063D361226810
:10393400D36923F48063D3612268D369296943EA94
:103944000123D361BDE70220C1E7000070B4056A1A
:1039540025F0010505628469056A154EB04215D04B
:10396400B0F1804F12D0A6F57C46B0420ED006F5D9
:103974008066B0420AD006F58066B04206D006F5ED
:103984009A36B04202D044F0010202E024F003046B
:10399400224322F0F0021B01DBB2134325F00A0597
:1039A40001F00A0129438361016270BC704700BFC2
:1039B4000000014038B590F83C30012B58D00D463A
:1039C4000446012380F83C30022380F83D30DAB10C
:1039D400042A2AD0082A3AD0CB684A6809680068C1
:1039E400FFF769FD2268D36923F44063D361226839
:1039F400D369A96843EA0123D361012384F83D30E4
:103A0400002084F83C0038BDCB684A680968006827
:103A1400FFF79CFF2268936923F00C0393612268EB
:103A24009369A9680B439361E7E7CB684A6809681F
:103A34000068FFF70DFD2268936923F440639361E6
:103A440022689369A96843EA01239361D5E7CB68A7
:103A54004A6809680068FFF715FD2268D36923F0F6
:103A64000C03D3612268D369A9680B43D361C4E70B
:103A74000220C8E710B401F01F01012303FA01F486
:103A8400036A23EA04030362036A8A40134303625A
:103A94005DF8044B7047000010B50446012200682D
:103AA400FFF7E8FF23680A4A93420BD02268936821
:103AB40003F00703062B03D0136843F001031360DC
:103AC400002010BD5A6C42F400425A64EEE700BF75
:103AD4000000014010B504460C290DD8DFE801F0C0
:103AE400070C0C0C200C0C0C260C0C0C2C00026883
:103AF400D36843F00203D36001222068FFF7BAFFC2
:103B04002368134A93421DD02268936803F0070385
:103B1400062B03D0136843F001031360002010BD8B
:103B24000268D36843F00403D360E5E70268D3680E
:103B340043F00803D360DFE70268D36843F010035F
:103B4400D360D9E75A6C42F400425A64DCE700BF00
:103B54000000014010B5044601220068FFF78AFF07
:103B640023680A4A93420BD02268936803F0070340
:103B7400062B03D0136843F001031360002010BD2B
:103B84005A6C42F400425A64EEE700BF0000014060
:103B940010B504460C290DD8DFE801F0070C0C0C15
:103BA400200C0C0C260C0C0C2C000268D36843F07F
:103BB4000203D36001222068FFF75CFF2368134AE5
:103BC40093421DD02268936803F00703062B03D0A9
:103BD400136843F001031360002010BD0268D3682A
:103BE40043F00403D360E5E70268D36843F00803B5
:103BF400D360DFE70268D36843F01003D360D9E7EA
:103C04005A6C42F400425A64DCE700BF00000140F1
:103C140010B5044601220068FFF72CFF2268936860
:103C240003F00703062B03D0136843F0010313606A
:103C3400002010BD10B504460C290DD8DFE801F0B2
:103C4400070C0C0C1C0C0C0C220C0C0C280002682D
:103C5400D36843F00203D36001222068FFF70AFF10
:103C64002268936803F00703062B03D0136843F01C
:103C740001031360002010BD0268D36843F00403FD
:103C8400D360E9E70268D36843F00803D360E3E74D
:103C94000268D36843F01003D360DDE710B401F089
:103CA4001F01042303FA01F4036A23EA04030362F1
:103CB400036A8A40134303625DF8044B704710B5EE
:103CC400044604220068FFF7E9FF2268536C43F4BA
:103CD400004353642268936803F00703062B03D060
:103CE400136843F001031360002010BD10B50446AF
:103CF400042922D0082926D0C9B12268D36843F008
:103D04008003D36004222068FFF7C8FF2268536C45
:103D140043F4004353642268936803F00703062BBB
:103D240003D0136843F001031360002010BD026840
:103D3400D36843F00203D360DFE70268D36843F03B
:103D44000403D360D9E70268D36843F00803D3605F
:103D5400D3E710B5044604220068FFF79FFF2268EA
:103D6400536C43F4004353642268936803F00703DD
:103D7400062B03D0136843F001031360002010BD29
:103D840010B50446042922D0082926D0C9B12268D6
:103D9400D36843F08003D36004222068FFF77EFFDA
:103DA4002268536C43F4004353642268936803F01D
:103DB4000703062B03D0136843F0010313600020AC
:103DC40010BD0268D36843F00203D360DFE70268E2
:103DD400D36843F00403D360D9E70268D36843F09F
:103DE4000803D360D3E7704770470268D36823F4AD
:103DF4009073D3600268536923F001035361202355
:103E040080F83A30704790F83930DBB2212B01D07A
:103E1400022070478368B3F5805F16D0036A5A1C8A
:103E240002621A7803685A60C38C013B9BB2C38454
:103E34004BB90268D36823F08003D3600268D36867
:103E440043F04003D36000207047036A1B88026874
:103E5400C3F30803536003691BB9036A02330362A3
:103E6400E2E7036A01330362DEE790F83930DBB23C
:103E7400202B16D1B9B1C2B190F83830012B16D02D
:103E840001628284C2840023C363212280F8392022
:103E940080F838300168CA6842F08002CA60184667
:103EA40070470220704701207047012070470220AC
:103EB400704790F83A30DBB2202B20D109B312B30B
:103EC40090F83830012B20D081628285C28500238E
:103ED400C363222280F83A2080F838300168CA6827
:103EE40042F48072CA6001684A6942F001024A6180
:103EF4000168CA6842F02002CA601846704702206E
:103F0400704701207047012070470220704708B5B0
:103F14000168CB6823F04003CB60202380F839305C
:103F240000F0F3FB002008BD08B590F83A30DBB28E
:103F3400222B45D18368B3F5805F0ED0036903BBA0
:103F440003685A68836A591C81621A70C38D013BE5
:103F54009BB2C385F3B1002008BD826A036943B9EB
:103F640003685B68C3F308031380836A02338362C4
:103F7400ECE703685B68DBB21380836A0133836216
:103F8400E4E703685B68826A511C816203F07F0383
:103F94001370DBE70268D36823F02003D360026860
:103FA400D36823F48073D3600268536923F0010358
:103FB4005361202380F83A3000F0A0FB0020CBE7C7
:103FC4000220C9E710B5044602681368D168526933
:103FD40013F00F0005D113F0200F02D011F0200FC1
:103FE40013D128B112F0010213D111F4907F10D132
:103FF40013F0800F02D011F0800F69D113F0400F3D
:1040040002D011F0400F67D110BD2046FFF78CFF9E
:10401400FAE713F0010F06D011F4807F03D0E06BB0
:1040240040F00100E06313F0040F04D01AB1E06B18
:1040340040F00200E06313F0020F04D01AB1E06B09
:1040440040F00400E06313F0080F04D01AB1E26BEF
:1040540042F00802E263E26B002AD5D013F0200F8D
:1040640002D011F0200F21D123685B6903F04003D3
:10407400E26B12F0080F00D123B32046FFF7B5FE20
:1040840023685A6912F0400F18D05A6922F040028E
:104094005A61636B73B1124A1A65606BFDF7EFFDE9
:1040A4000028B1D0606B036D9847ADE72046FFF759
:1040B4003BFFD9E7204600F03DFBA5E7204600F092
:1040C40039FBA1E7204600F035FB0023E3639BE7BF
:1040D4002046FFF798FE97E72046FFF718FF93E77F
:1040E400E940000808B5806B0023C385C38400F051
:1040F40021FB08BD90F8393090F83A001843704716
:1041040008B5FDF727FD08BD704708B5FDF716FD96
:10411400FDF7B1FDFFF7F8FF08BD00000C4BDB68AD
:1041240013F0807F04D10A4AD36843F08073D360CC
:10413400084B00225A601A6842F001021A6000BF5C
:1041440000BF00BF5868B0FA80F04009704700BF54
:10415400F0ED00E0001000E008B5FFF7DFFFFDF729
:10416400D3FCFDF737FC08BD4B6833B1834201D063
:104174000C31F9E7B1F9000070474FF0FF30704798
:1041840018B108B5FFF7F0FF08BD4FF0FF307047D6
:1041940008B5034B1B6813B1024A1068984708BD61
:1041A400FC0000202001002008B50248FFF79AF81F
:1041B40008BD00BF00010020FEE700000F49D1F850
:1041C400883043F47003C1F888300D4B1A6842F00C
:1041D40001021A60002098601A6822F0847222F4A6
:1041E40080321A60074A5A601A6822F480221A60E0
:1041F400D8604FF000638B60704700BF00ED00E0B3
:10420400003802401030002488B00268444B9A42BF
:104214001DD00368B3F1804F26D00268414B9A4207
:104224002FD00268404B9A4238D002683F4B9A42E2
:1042340041D002683E4B9A424AD002683D4B9A42B2
:1042440053D002683C4B9A425CD008B070470023BC
:1042540000933A4B5A6C42F001025A645B6C03F0CF
:1042640001030093009BD4E700230193334B1A6CA2
:1042740042F001021A641B6C03F001030193019BD9
:10428400CBE7002302932D4B1A6C42F002021A640E
:104294001B6C03F002030293029BC2E70023039307
:1042A400264B1A6C42F004021A641B6C03F00403DC
:1042B4000393039BB9E700230493204B1A6C42F049
:1042C40008021A641B6C03F008030493049BB0E710
:1042D40000230593194B5A6C42F480325A645B6C88
:1042E40003F480330593059BA7E700230693134B40
:1042F4005A6C42F400325A645B6C03F40033069344
:10430400069B9EE7002307930C4B5A6C42F48022D1
:104314005A645B6C03F480230793079B95E700BF03
:10432400000001400004004000080040000C004070
:104334000040014000440140004801400038024070
:10434400B0F1FF3F29D008B51B4B984228D011D8B3
:10435400A3F50063984225D003F58063984223D0E7
:10436400B0F1804F22D001461448FFF725FF6FF0CB
:104374000D000BE0124B98421AD008D9114B984209
:1043840018D003F580639842EDD11A2008BDA3F537
:1043940080439842E7D11920F8E76FF00D00704789
:1043A4003220F3E71D20F1E71E20EFE71C20EDE7A4
:1043B4001820EBE71920E9E7000C00403C700008E6
:1043C4000040014000440140B0F1FF3F29D008B54E
:1043D4001B4B984228D00CD91A4B98422CD01AD98E
:1043E400194B98422AD003F5806398420CD11A20C5
:1043F40016E0A3F50063984218D003F58063984251
:1044040016D0B0F1804F15D001461048FFF7D4FE06
:104414006FF00D0004E0A3F580439842F4D11B2013
:1044240008BD6FF00D0070473220F9E71D20F7E753
:104434001E20F5E71C20F3E71820F1E71920EFE729
:10444400000C004000400140004401403C70000862
:1044540038B50446FFF7D8FE2068FFF771FF002245
:104464000E21FDF78FFB2068FFF76AFFFDF7BEFB07
:104474002068FFF7A9FF05462068FFF761FF854222
:1044840000D138BD2068FFF79FFF00220E21FDF701
:1044940079FB2068FFF798FFFDF7A8FBF1E7000020
:1044A400B0F1FF3F28D008B51A4B984226D00CD95A
:1044B400194B98422AD019D9184B984228D003F5A1
:1044C400806398420CD1022015E0A3F50063984262
:1044D40016D003F58063984214D0B0F1804F13D006
:1044E40001460F48FFF768FE002004E0A3F580436F
:1044F4009842F5D1022008BD002070470120FAE758
:104504000120F8E70120F6E70120F4E70220F2E7B2
:104514000220F0E7000C004000400140004401404C
:104524002070000804387047F8B505460F46164653
:10453400FFF7F8FFEB689E4200D0F8BD044677B958
:10454400002380F88D30836E03B1984794F88C2053
:10455400202304F16C012846FDF754FDEDE7002308
:104564000366012280F88D20016E68310144042322
:1045740019442846FDF78DFDDFE738B50546FFF7FA
:10458400D1FF0446426E22B190F88D30DBB2012B8C
:1045940008D0022384F88D30002323662846FDF7D3
:1045A400BFFD38BD036E002BF3D0016E6C30904715
:1045B400EFE710B50446FFF7B5FF036E1F2B02DCCF
:1045C400036E0133036690F88D30DBB2012B00D00B
:1045D40010BD016E683101440423012219442046B0
:1045E400FDF757FDF4E708B5FFF79CFF002380F8BB
:1045F4008C3008BD10B50446FFF794FF90F88E3058
:1046040003B110BD2046FDF78BFDFAE708B5024B58
:104614001868FEF7F3F908BD2401002008B5024B21
:104624001868FEF7B1FA08BD2401002008B5024B52
:104634005868FEF7E3F908BD2401002008B5024BD1
:104644005868FEF7A1FA08BD2401002008B5024B02
:104654009868FEF7D3F908BD2401002008B5024B81
:104664009868FEF791FA08BD2401002004387047C9
:1046740008B590F85120064B53F82200FFF73AFD95
:1046840000F02200222814BF0020012008BD00BF32
:104694003001002008B590F85120064B53F8220051
:1046A400FFF728FD00F02100212814BF002001207D
:1046B40008BD00BF30010020E8B110B50446816494
:1046C40090F95000FDF7A0FA94F85100A16DB4F8E8
:1046D400623001221944084B53F82000FFF7C5FB50
:1046E4000022012194F95000FDF74CFA94F950008E
:1046F400FDF77CFA10BD70473001002008B5FFF7C4
:10470400B5FF08B1426C904708BD38B50546FFF7C0
:10471400ADFF28B10446836C9847B0F1FF3F00D148
:1047240038BDA16DB4F86230012219442846FFF760
:104734009CFBF5E730B585B0044603681A6812F0AF
:10474400010F10D0002200921A6800925B68009357
:10475400009B2046FFF78AFF054610B1FFF788FF4C
:1047640028B305B030BD1A6812F0020F07D000223A
:1047740001921A6801925B680193019BE9E71A6848
:1047840012F0040F07D0002202921A6802925B68AA
:104794000293029BDDE71A6812F0080FD9D00022B9
:1047A40003921A6803925B680393039BD1E7012287
:1047B40005F152012046FFF77CFBD2E708B525201E
:1047C400FDF74AFA024B1868FFF7FCFB08BD00BF6F
:1047D4003001002008B52620FDF73EFA024B586848
:1047E400FFF7F0FB08BD00BF3001002008B54720EB
:1047F400FDF732FA024B9868FFF7E4FB08BD00BFEF
:10480400300100200D4B1B681844EFF308829042DE
:1048140008D80B4A0B49521A904209D2074A106031
:1048240018467047084B0C221A604FF0FF33F7E725
:10483400054B0C221A604FF0FF33F1E724000020EF
:104844000080012000040000B0030020FEE7000007
:10485400024B16221A604FF0FF307047B00300205D
:10486400012070473A2803D80C4B33F9103001E08B
:104874004FF0FF33C3F30312052A03D8084850F856
:10488400222000E0002203F00F03064850F82330F2
:1048940009B1936170471B0493617047506F00081E
:1048A40008000020C86F000808B5FFF729FC08BD00
:1048B400B0F8623001335A4203F03F0302F03F0282
:1048C40058BF53429BB2A0F86230B0F85E20B0F8F3
:1048D40062309BB29A4201D0002070474FF0FF3003
:1048E4007047B0F8F4304033B0F8F000181A00F014
:1048F4003F007047B0F8F4309BB2B0F8F020934218
:1049040003D0D0F8E830985C70474FF0FF30704720
:10491400B0F8F42092B2B0F8F0309A4209D0D0F84E
:10492400E820D25C013303F03F03A0F8F0301046D6
:1049340070474FF0FF307047037C33B1B0F8F2207A
:10494400B0F8F6309BB29A42F8D1704770B50123A3
:104954000374B0F8F250EC18634204F03F0403F01F
:104964003F0358BF5C42E6B2B0F8F6309BB2E2B205
:104974009342F9D0D0F8EC305955A0F8F26000F128
:1049840094042046FFF786FE08B1012070BD024959
:104994002046FFF791FEF8E7B548000800F111033F
:1049A400C0F8E8300023A0F8F430A0F8F03000F1AB
:1049B4005102C0F8EC20A0F8F230A0F8F6307047AD
:1049C4003A2903D8044B33F9113001E04FF0FF3397
:1049D400A0F8E230704700BF506F00083A2903D8AE
:1049E400044B33F9113001E04FF0FF33A0F8E0300D
:1049F400704700BF506F000838B504460023436079
:104A04004FF47A7383600F4B03600F4B984211D0BD
:104A14000D460E492846FFF7B3FBA4F8E2000C4903
:104A24002846FFF7ADFBA4F8E0002046FFF7B6FFE9
:104A3400204638BD0021FFF7C3FF01212046FFF7C0
:104A4400CDFFF2E75C7000083C010020C06E000856
:104A5400086F0008012800D0704708B54FF6FF73AF
:104A6400994200D008BD02490248FFF7C5FFF9E7A3
:104A7400004400403C01002008B54FF6FF710120BE
:104A8400FFF7E8FF08BD08B5B430FEF751FD08BDD7
:104A94000139032909D8DFE801F0020B04060020DC
:104AA4007047082070470C2070474FF0FF30704764
:104AB40004207047F8B506460C46FFF7E9FF0546A3
:104AC400B0F1FF3F30D0631EC3EBC3018A00B2587C
:104AD400602A2ED0702A2CD0002A58D0102A56D002
:104AE400202A54D0302A52D0502A50D0402A4ED0B6
:104AF400DA1D1201B1584FF6FF7291426FD006F1E0
:104B0400B40707332A4606EB03113846FEF752FF73
:104B140004F13C0306EB83046368002B65D029464B
:104B24003846FFF787F85AE0AE213248FFF744FBD6
:104B3400C9E706F1B407C3EBC30399002A4631441D
:104B44003846FEF794FE042C13D804F13C0306EB1C
:104B540083035B686BB1344494F8083123B129466C
:104B64003846FFF70DF93AE029463846FFF710F8C2
:104B740035E0344494F8083123B129463846FFF728
:104B8400E8F82CE029463846FEF7E4FF27E006F172
:104B9400B407C3EBC30399002A4631443846FEF7F1
:104BA40037FE042C13D804F13C0306EB83035B6843
:104BB4006BB1344494F8083123B129463846FFF7E1
:104BC40095F80CE029463846FEF784FF07E03444A4
:104BD40094F8083123B129463846FFF770F8F8BD38
:104BE40029463846FEF758FFF9E729463846FFF7C5
:104BF4000FF8F4E77C70000838B504460023C0F8C9
:104C0400BC30C0F8C430C0F8C830C0F8CC3000F1B3
:104C1400B4052846FEF7B0FDD4F8F4309BB128461D
:104C2400FEF775FC01212046FFF744FF02212046D0
:104C3400FFF740FF03212046FFF73CFF04212046F5
:104C4400FFF738FF38BD2846FEF74FFCEAE7C0F807
:104C5400F41070470346154A904217D04FF6FF7080
:104C6400B3F1804F14D0124A934213D0114A9342A5
:104C740012D0114A934211D0104A934210D0104AD4
:104C840093420FD00F4A93420ED070470020E7E7BB
:104C94000120E8E70220E9E70320EAE70420EBE744
:104CA4000520ECE70620EDE70720EEE700000140D1
:104CB4000004004000080040000C00400040014097
:104CC400004401400048014070B504460D460846C2
:104CD400FFF7C0FF06464FF6FF73984223D004F156
:104CE400B003264A42F82630C4F8B450002584F8AC
:104CF400D050C4F8D450C4F8D850C4F8DC50C4F828
:104D0400E050C4F8E450C4F8E850C4F8EC5084F817
:104D1400F05084F8F150C4F8B04004F1B400FFF747
:104D240073FA294605E032211548FFF745FAD6E71C
:104D34000131032920DCCB005B1A980022184FF6BE
:104D4400FF7525500023936013615361D360936111
:104D5400CA1D1201A018A5500122426004EB0112E1
:104D64009367D367042BE3DC03F13C0204EB820278
:104D7400002050600133F5E7204670BD3C0200205E
:104D84007C70000830B58DB0044600230793089367
:104D940009930A930B93069306A907A8FEF762FAF0
:104DA400D4F8B400FFF77CFB012809D0022824D0F2
:104DB4004FF466711C48FFF7FFF90024254603E011
:104DC4000A9CFEF72FFA05460023019302930393EE
:104DD4000493059301A8FEF763FA9DF81430012BA0
:104DE40010D0B4F5A05F06D018D9B4F5C05F02D0D6
:104DF400B4F5E05F15D16D0013E00B9CFEF722FAC9
:104E04000546E1E7B4F5C05F02D0B4F5E05F01D137
:104E1400AD0006E0FEF700FA054602E0B4F5805F57
:104E2400E9D028460DB030BD7C70000838B5054681
:104E34000C46012A03D0022A19D0013911E0FFF7E8
:104E4400A1FF1249A1FB0031890C04FB01F10B0CF9
:104E54005C1CD5F8B4209362C5F8B830B1FBF4F10A
:104E64000139D5F8B430D962C5F8C01038BDFFF7A0
:104E740089FFB0FBF4F10B0C5C1CD5F8B4209362F1
:104E8400C5F8B830B1FBF4F10139EAE783DE1B431E
:104E940070B504460E46D0F8B4309D6A0135012A37
:104EA40003D0022A10D0481E0AE0FFF76BFF0A4B1A
:104EB400A3FB0030800C06FB00F0B0FBF5F00138DA
:104EC400D4F8B430586270BDFFF75CFF06FB05F1FF
:104ED400B0FBF1F00138F3E783DE1B43043870477D
:104EE40010B5044640B12046FFF7F8FF0068D0F83B
:104EF400F43003B1984710BD4FF431710148FFF706
:104F04005BF9F0E77C70000838B5054648B12B7FA3
:104F1400013B072B1CD8DFE803F00A101B0C1B1BFA
:104F24001B0E40F2D7210B48FFF746F9EFE70124A7
:104F340004E0032402E0042400E002242846FFF7EE
:104F4400CDFF00683C3400EB8404636803B19847E8
:104F540038BD00BF7C70000808B5FFF7D5FF08BD59
:104F640008B5FFF7D1FF08BD08B5FFF7B9FF08BDC5
:104F740008B5064B186810B10430FEF7F1FA034B7C
:104F8400986910B10430FEF7EBFA08BD3C0200202A
:104F940008B5034B186810B10430FEF7E1FA08BDF8
:104FA4003C02002008B5034B586810B10430FEF7EA
:104FB400D7FA08BD3C02002008B5034B986810B12D
:104FC4000430FEF7CDFA08BD3C02002008B5034BBF
:104FD400D86810B10430FEF7C3FA08BD3C020020C3
:104FE40008B5034B186910B10430FEF7B9FA08BDCF
:104FF4003C02002008B5034B586910B10430FEF799
:10500400AFFA08BD3C02002008B5034BD86910B1C3
:105014000430FEF7A5FA08BD3C020020F8B50746A7
:105024000E4600242546022C0DDC3B190A22197970
:10503400304600F09BF805442E21304600F057F826
:1050440005440134EFE70A22F979304600F08EF87E
:105054002844F8BD30B4054D056001714271837177
:105064009DF80830C37130BC704700BFF070000871
:10507400012800D070474FF6FF739942FAD100B56A
:1050840083B0002100910B460A460348FFF7E2FF74
:1050940003B05DF804FB00BF5C02002008B54FF6C6
:1050A400FF710120FFF7E4FF08BDF8B506460C4682
:1050B4000025571E4AB133681B6814F8011B30469B
:1050C400984710B101353A46F3E72846F8BD61B177
:1050D40070B50D46044603685E680846FBF758F849
:1050E400024629462046B04770BD0020704708B5E7
:1050F40003681B68984708BDF0B58BB005460023CC
:105104008DF82430012A01D909AC08E00A22FBE712
:105114003733DBB204F8013D8F420ED831461746CF
:10512400B1FBF2F6CBB216FB02F0C0B21B1ADBB233
:10513400092BEDD83033DBB2ECE754B12B685E6851
:105144002046FBF725F8024621462846B0470BB017
:10515400F0BD0020FBE708B522B903681B68C9B29B
:10516400984708BDD2B2FFF7C7FFFAE708B5FFF7C3
:10517400F2FF08BD10B50446FFF796FBE060236814
:10518400DB6820469847002808DAFFF78DFBE368C0
:10519400C01AA3689842F2D34FF0FF3010BDF8B59F
:1051A40007460C4616460025B5420AD23846FFF794
:1051B400E1FF002805DB214601F8010B01350C460F
:1051C400F2E72846F8BD2DE9F0411E469BB107469B
:1051D40088461446002504E0224602F8010B0135F6
:1051E4001446B54208D23846FFF7C4FF002803DB53
:1051F4008045F1D100E01D462846BDE8F08100005D
:1052040008B5054B1BB10548FFF76BFB00B908BD9A
:10521400AFF30080FBE700BF000000003C0100206A
:10522400704708B50320FCF79BFCFCF742FC08BD63
:1052340008B5FFF7F5FFFCF771FB01E0FFF7E0FFAE
:10524400FCF7C6FB014B002BF8D1F9E70552000827
:1052540008B500F0E5F808BD0023012803D0400894
:105264000133DBB2F9E718467047000010B5012896
:1052740005D018B94FF6FF73994246D010BD4FF6CA
:10528400FF739942F5D1274B06221A700022DA6087
:1052940007241C751A62082483F828405A630924D9
:1052A40083F83C409A640A2483F85040DA65172452
:1052B40083F864401A6783F87840C3F8842083F83D
:1052C4008C40C3F8982083F8A040C3F8AC2083F83E
:1052D400B440C3F8C020282483F8C840C3F8D420BD
:1052E40083F8DC40C3F8E82083F8F040C3F8FC20DE
:1052F40083F80441C3F8102183F81841C3F824212A
:1053040083F82C41C3F83821B3E7074C054B9C4282
:10531400B4D0143CE368002BF8D0201D03220146CE
:105324009847F3E764020020A403002008B5012095
:10533400FCF7BCFC08BD08B50220FCF7B7FC08BDAF
:1053440008B50420FCF7B2FC08BD08B50820FCF73A
:10535400ADFC08BD08B51020FCF7A8FC08BD10B5CD
:105364002024B4F5007F04D8A0B2FCF79FFC6400AD
:10537400F7E710BD10B54FF48064B4F5004F04D8BE
:10538400A0B2FCF793FC6400F7E710BD08B583688E
:1053940013B1C368984708BD01F0AEFC08B5FFF728
:1053A4005BFF00EB800083000348184404308368EB
:1053B4000BB1FFF7EBFF08BD6402002008B54FF600
:1053C400FF710120FFF752FF08BD08B54FF6FF71CA
:1053D4000020FFF74BFF08BD70B50D4D0D4C641B4D
:1053E400A4100026A64209D10B4D0C4C01F0D8FCA8
:1053F400641BA4100026A64205D170BD55F8043BD9
:1054040098470136EEE755F8043B98470136F2E732
:105414001871000818710008187100082C71000830
:10542400024B0146186800F003B800BF28000020B2
:10543400F8B5CD1C25F0030508350C2D38BF0C2517
:10544400002D064601DBA94203D90C23336000205A
:10545400F8BD00F057F821490A6814469CB9204F5A
:105464003B6823B92146304600F03CF838602946B1
:10547400304600F037F8431C23D10C233360304608
:1054840000F046F8E3E723685B1B17D40B2B03D922
:1054940023601C44256004E06368A2420CBF0B60D7
:1054A4005360304600F034F804F10B00231D20F063
:1054B4000700C21ACCD01B1AA350C9E7224664685D
:1054C400CCE7C41C24F00304A042E3D0211A3046E4
:1054D40000F008F80130DDD1CFE700BFA4030020BD
:1054E400A803002038B5064C00230546084623606F
:1054F400FFF788F9431C02D1236803B12B6038BD40
:10550400B0030020014800F011B800BFB803002028
:10551400014800F00CB800BFB80300209FED010B58
:10552400704700BF000000000000F87F704770471C
:10553400000000002DE9F04753EC102B5B4823F0EA
:105544000041814282B010EE100A00F28B800843C1
:1055540000F0858056489A460AEA000014460D4633
:10556400002840F087800022524B2046FAF7D4FFEF
:10557400DFF848C1504A0B46ACFB0313064602EB66
:10558400530732463B4630463946FAF7C5FF2246B2
:105594002B46FBF7EBF832463B46FAF7BDFF39A33F
:1055A400D3E90023FAF702FE38A3D3E90023CDE9B7
:1055B4000001FAF7FBFDDDE900238046894635A1A9
:1055C400D1E90001FBF7D2F802460B4640464946B2
:1055D400FAF7ECFD02460B4630A1D1E90001FBF7D6
:1055E400C5F830A3D3E90023FAF7E0FD32463B4681
:1055F400FAF792FF00264F1C32463B4630463946A6
:10560400FAF78AFF02460B4620462946FBF7AEF816
:1056140032463B4680468946FAF7C6FD3246044682
:105624000D463B4630463946FAF7C0FD42464B46E6
:10563400FAF7BCFD02460B4620462946FBF796F8CE
:1056440032463B46FAF768FF32463B46FAF7AEFD70
:105654000AF0004A02464AEA010343EC102B02B066
:10566400BDE8F0871946FAF7A1FD41EC100B02B032
:10567400BDE8F087114A124BA2FB0121002603EB7F
:1056840051077EE7F1155FF1155FE13F0FEAA00EC8
:10569400EAA0F63F34C83225DE91E6BF6EDBB66D74
:1056A400DBB6F93FB76DDBB66DDBD63FFFFFEF7FAF
:1056B4000000F07F0000504393787F29ABAAAAAA88
:1056C40093789F2A10EE102A22F00041CB0D7F3BE5
:1056D400162B28DC002B18DB194919410A4221D06A
:1056E400DFED187A70EE277AF5EEC07AF1EE10FA53
:1056F40018DD002A04DA4FF4000040FA03F31A44D8
:1057040022EA010300EE103A7047DFED0E7A70EEE4
:10571400277AF5EEC07AF1EE10FA03DD002A08DBF1
:105724009FED090A7047B1F1FF4FFBD330EE000A39
:1057340070470029FFEE007A18BFB0EE670A704781
:10574400FFFF7F00CAF24971000000002DE9F04F0D
:105754002DED028BDFF82CA38BB057EC106B55ECBE
:10576400114B00F0F3F99AF90080B0EE408AF0EEA4
:10577400608AB8F1FF3F35D022462B4620462946A1
:10578400FBF764F9834668BB32463B4630463946EC
:10579400FBF75CF98146002840F091803046394699
:1057A40000220023FBF720F928B30022002320461F
:1057B4002946FBF719F98346002858D09FEDA77BAB
:1057C4000122AC4BCDF820900092CDE90267CDE9DF
:1057D40004458DED067B0193B8F1000F00F089803C
:1057E4009FEDA08BB0EE480AF0EE680A0BB0BDEC5A
:1057F400028BBDE8F08FB0EE480AF0EE680A00F0C4
:10580400E7FF8046002800F082804FF000084FF048
:10581400000951EC180B42464B46FBF7E5F800280B
:10582400E0D047EC106B00F0D3FF0028DAD045EC51
:10583400104B00F0CDFF0028D4D09AF900308D4AE7
:10584400019204210022022BCDE90267CDE904452F
:10585400CDE906890091089204D0684600F0C0FFA3
:1058640000284BD101F052FA2223036046E045ECB4
:10587400104B00F0ADFF0028B4D0002200232046D6
:105884002946FBF7BBF80028ACD07A4A9AF90030D5
:10589400CDF820B00121CDE90267CDE90445CDE979
:1058A4000012002B79D19FED6D7B8DED067B684650
:1058B40000F096FF002876D0089B2BB320E000224E
:1058C400002320462946FBF78FF800288AD09FED55
:1058D400658B0122674BCDF820B0B8F1020F00921E
:1058E400CDE90267CDE904458DED068B01933FF4C4
:1058F40079AF684600F074FF002859D0089B1BB1AB
:1059040001F004FA089B03609DED068B6AE747ECFF
:10591400106B00F05DFF00283FF477AF45EC104BAF
:1059240000F056FF00283FF470AF53EC182B18EE2C
:10593400100A1946FBF78AF89AF90090002870D1EA
:105944000323DFF830C10890294620460093002243
:10595400494BCDF804C0CDE90445CDE90267FAF717
:10596400DBFD04460D46B9F1000F26D1DFF818918E
:105974004FF060480022002330463946CDE90689BD
:10598400FBF73CF840BB684600F02AFF002893D19F
:1059940001F0BCF9222303608EE738490020022B72
:1059A400CDE9060183D101F0B1F92123036083E736
:1059B40001F0ACF921230360A0E79FED2C7B0022CA
:1059C4000023304639468DED067BFBF717F8B0B956
:1059D400B9F1020FDCD0D6E745EC104B00F002FF22
:1059E40022462B4651EC100BFAF7FEFFB0B9244BBC
:1059F4009AF900904FF06042CDE90623E8E745ECC0
:105A0400104B00F0EFFE22462B4651EC100BFAF738
:105A1400EBFF18B9194B0022CDE906239AF900903F
:105A2400D6E70122134BCDF820800092CDE902671E
:105A3400CDE904450193B9F1000F3FF434AF0022DE
:105A4400002310461946FAF791FEB9F1020FCDE989
:105A54000601A8D02BE700BFAFF3008000000000D0
:105A640000000000000000000000F03F0000000003
:105A74000000F07FF47000080000E03F0000F0FF39
:105A8400FFFFEFC78C000020FFFFEF472DE9F04335
:105A94002DED028B8BB055EC104B00F0C3FD284B61
:105AA400B0EE408AF0EE608A93F90060731C12D065
:105AB40022462B4620462946FAF7C8FF074650B926
:105AC4004FF000084FF000092046294642464B4655
