:020000040800F2
:1000000000800120310300088103000881030008FB
:10001000810300088103000881030008000000003C
:100020000000000000000000000000008103000844
:1000300081030008000000008103000887220008F7
:100040008103000881030008810300088103000880
:100050008103000881030008C5300008CF30000884
:10006000D9300008E3300008ED30000881030008B3
:100070008103000881030008810300088103000850
:1000800081030008810300088103000800000000CC
:10009000000000000000000000000000F730000831
:1000A000AD27000841270008C12700088103000888
:1000B0005D2700087127000885270008BD28000873
:1000C000CD280008DD280008ED280008810300087D
:1000D000810300086D2A0008852A0008000000003E
:1000E0000D310008BD250008810300080000000054
:1000F0000000000000000000000000008103000874
:10010000000000008103000899270008810300080F
:1001100000000000000000000000000000000000DF
:10012000810300088103000881030008810300089F
:100130008103000800000000000000000000000033
:100140000000000000000000000000008103000823
:100150008103000881030008810300089D2A00082C
:10016000FD2800080D290008000000000000000024
:10017000000000000000000000000000000000007F
:1001800000000000810300080000000000000000E3
:0401900081030008DF
:10019400034613F8012B002AFBD1181A01387047C3
:1001A40053B94AB9002908BF00281CBF4FF0FF31DA
:1001B4004FF0FF3000F00CB8ADF1080C6DE904CE3F
:1001C40003F004F8DDF804E0DDE9022304B070472D
:1001D400704700BF0348044B834202D0034B03B172
:1001E400184770478C0000208C000020000000009D
:1001F40005480649091A891001EBD171491002D04A
:10020400034B03B1184770478C0000208C0000207A
:100214000000000010B5064C237843B9FFF7DAFF5D
:10022400044B13B10448AFF300800123237010BDC5
:100234008C000020000000003C35000808B5054B88
:100244001BB105490548AFF30080BDE80840FFF73E
:10025400CFBF00BF00000000900000203C35000824
:1002640008B501210D2002F02FFC08BD10B50121B5
:100274000D2002F085FC094C012323604FF47A70B1
:1002840002F0A4FC00210D2002F07AFC002323607C
:100294004FF47A7002F09AFC10BD00BFA800002051
:1002A40000B595B0002201921E4B196C41F08051AB
:1002B40019641B6C03F080530193019B02921A4949
:1002C4000B6823F4404343F400430B600B6803F4CE
:1002D40040430293029B02210391012306931023BE
:1002E400079309910A920B934FF4A8730C93042378
:1002F4000D9307230E9303A801F012F900B1FEE752
:100304000F230F9302211091002311934FF4805275
:10031400129213930FA801F039FB00B1FEE715B058
:100324005DF804FB0038024000700040DFF834D070
:10033400002103E00C4B5B58435004310B480C4B39
:1003440042189A42F6D30B4A02E0002342F8043BD7
:10035400094B9A42F9D302F039F902F013FF02F083
:100364002BFE7047008001203C390008000000206B
:100374008C0000208C00002074030020FEE708B5E8
:1003840001F0A6FF08BD70477047000010B5044691
:100394000E4B18784FF47A73B3FBF0F30C4A1068E1
:1003A400B0FBF3F000F0AAF868B90F2C01D90120D2
:1003B4000AE0002221464FF0FF3000F04BF8054BD5
:1003C4001C60002000E0012010BD00BF04000020DC
:1003D400240000200800002008B50B4B1A6842F4E2
:1003E40000721A601A6842F480621A601A6842F451
:1003F40080721A60032000F01BF80020FFF7C6FF8C
:10040400FFF7C2FF002008BD003C0240034A116808
:10041400034B1B780B441360704700BF6C03002030
:1004240004000020014B1868704700BF6C030020D3
:10043400074AD36823F4E0631B041B0C000200F496
:10044400E060184340F0BF6040F40030D060704773
:1004540000ED00E030B4174BDB68C3F30223C3F1B3
:100464000704042C28BF04241D1D062D01D9033BB9
:1004740000E000234FF0FF3505FA04F421EA0401FB
:10048400994005FA03F322EA03031943002809DB20
:100494000901C9B200F1604000F5614080F8001321
:1004A40030BC704700F00F000901C9B2024B195467
:1004B400F6E700BF00ED00E014ED00E0002807DBE4
:1004C40000F01F02400901239340024A42F8203001
:1004D400704700BF00E100E000280CDB00F01F02C1
:1004E4004009012393402030034A42F82030BFF3EF
:1004F4004F8FBFF36F8F704700E100E00138B0F118
:10050400807F0AD2064B5860064AF02182F82310F5
:100514000020986007221A6070470120704700BFCE
:1005240010E000E000ED00E0002808DB00F01F020E
:100534004009012393406030014A42F8203070475B
:1005440000E100E0704708B5FFF7FCFF08BD90F834
:100554003530DBB2022B03D0802343650120704782
:10056400052380F835300268136823F00103136013
:100574000020704790F835007047000008B5054B1F
:100584005B69034200D108BD024B586102F0D0FD03
:10059400F9E700BF003C014090F83E30DBB2402B4D
:1005A40010D00369B3F5804F1BD0036D002B3CD1F1
:1005B400436CC3F3C813026803F0060343F0F0036B
:1005C40013617047036D2BB9436C026803F0FE039B
:1005D40013617047436C026843F00103DBB213619B
:1005E400704790F83D30DBB2212B0FD0436C02688A
:1005F40043F00103DBB21361436B6BB1DB6B7BB183
:100604000268536843F4006353607047436C0268A4
:1006140003F0FE031361EFE7826B002AEED107E0DB
:10062400836BDB6B002BEBD102E0036D012B00D05D
:100634007047436CC3F3C813026803F0060343F026
:10064400F1031361F4E7436C0268DBB21361436B9B
:100654003BB1DB6B4BB10268536843F400635360F6
:100664007047826B002AF4D1FAE7836BDB6B002BB3
:10067400F1D1F5E710B48BB090F83E30DAB2C16A2C
:10068400046B90F83D30DBB2222B0BD0002309938E
:1006940003685A6909929B690993099B0BB05DF839
:1006A400044B7047036D0BB9402A17D0036D1BB977
:1006B4000369B3F5404F19D0438D9BB2002B25D16C
:1006C400029303685A6902929A690292029A1A681A
:1006D40042F400721A6000230365DFE700930368A5
:1006E4005A6900929B690093009BD7E7002301930A
:1006F40003685A6901929A690192019A1A6842F44C
:1007040080721A60036D01330365C7E7438D9BB2A2
:10071400012B25D0438D9BB2022B7BD0026813683A
:1007240043F48063136003685A6812F4006F0ED0B8
:1007340011F5803F07D0012905D0082903D01029DD
:1007440001D0202903D15A6842F480525A60002310
:10075400089303685A6908929B690893089BBAE74F
:1007640011F5803F11D0082934D0202932D0122C21
:100774002ED0042940D002293ED010293CD0026852
:10078400136823F4806313603BE00268136823F466
:100794008063136003685A6812F4006F0CD01A68FF
:1007A40022F480621A600023039303685A69039257
:1007B4009B690393039B8EE7002204925A69049277
:1007C4009A690492049A1A6842F400721A6082E7E1
:1007D4000129CED00268136823F4806313600023D8
:1007E400069303685A6906929A690692069A1A68E9
:1007F40042F400721A606EE70268136843F480637F
:1008040013600023059303685A6905929B69059355
:10081400059B60E704290ED002290CD010290AD0C8
:100824000268136823F4806313600268136843F456
:100834000063136004E00268136843F48063136088
:1008440003685A6812F4006F0ED011F5803F07D088
:10085400012905D0082903D0102901D0202903D16A
:100864005A6842F480525A600023079303685A6915
:1008740007929B690793079B2DE7438D9BB253B166
:10088400426A036812781A61436A01334362438DF2
:10089400013B9BB243857047438D9BB253B10368C0
:1008A4001A69436A1A70436A01334362438D013BF8
:1008B4009BB243857047C36AB3F52A0F04D0C36A59
:1008C400B3F12A4F03D070470123C3627047082352
:1008D400C362F8E730B482B090F83D4004F02804D5
:1008E400282C34D1002936D0002A36D090F83C4048
:1008F400012C34D0012480F83C400468256815F0AC
:10090400010F03D1256845F00105256005682C68B1
:1009140024F400642C60292480F83D40202480F8CD
:100924003E400024046441624285428D0285C362D4
:10093400019403685A6901929A690192019A80F8B4
:100944003C405A6842F4E0625A60204600E00220CB
:1009540002B030BC70470120FAE70120F8E702201A
:10096400F6E730B482B090F83D4004F02804282C17
:1009740034D1002936D0002A36D090F83C40012CDE
:1009840034D0012480F83C400468256815F0010F38
:1009940003D1256845F00105256005682C6824F419
:1009A40000642C602A2480F83D40202480F83E40D6
:1009B4000024046441624285428D0285C36201942D
:1009C40003685A6901929A690192019A80F83C403D
:1009D4005A6842F4E0625A60204600E0022002B005
:1009E40030BC70470120FAE70120F8E70220F6E75F
:1009F40090F83D30DBB2202B01D002207047282331
:100A040080F83D3003681A6812F0010F03D11A68A8
:100A140042F001021A600268136843F480631360B1
:100A24000268536843F44073536000207047704772
:100A3400704708B590F83D30DAB2438D9BB27BB174
:100A4400416A036809781961436A01334362438D3B
:100A5400013B9BB24385438D9BB20BB9292A00D03D
:100A640008BD0268536823F4806353602123036341
:100A7400282380F83D3001F00CFFF1E708B590F829
:100A84003D30DAB2438D9BB27BB103681969436A86
:100A94001970436A01334362438D013B9BB2438522
:100AA400438D9BB20BB92A2A00D008BD0268536853
:100AB40023F48063536022230363282380F83D30AA
:100AC40001F0CDFEF1E708B590F83D3003F02803BE
:100AD400282B07D003686FF002025A61002380F8C4
:100AE4003C3008BD0268536823F48063536011F0FE
:100AF400040F0BD0002311F0800F09D1828900214B
:100B040080F83C10194601F065FEEAE70123F2E79C
:100B1400028BF4E708B590F83D30DBB2C26A082ACC
:100B240001D0202A01D1282B06D0212B1ED0036806
:100B34006FF480625A6108BD1A4BC362026853683D
:100B440023F4E063536003686FF480625A610268BF
:100B5400136823F48063136000230363202280F866
:100B64003D2080F83E3001F05EFEE4E70D4BC362A9
:100B740021230363202380F83D30002380F83E3096
:100B84000268536823F4E063536003686FF480627F
:100B94005A610268136823F48063136001F079FEDC
:100BA400C9E700BF0000FFFF704710B590F83D3063
:100BB400DBB290F83E20D2B2C46A018D09B9212B70
:100BC40004D0212B3BD0402A37D010BD082C04D0B0
:100BD400202C02D014F5803F19D10268536823F405
:100BE400E06353600268136843F4007313600023E6
:100BF4000363202380F83D3090F83E30DBB2402B75
:100C040015D0002380F83E30FFF711FFDDE70268BE
:100C1400536823F4E063536011230363002380F8D3
:100C24003E30202380F83D30FFF701FFCDE700235D
:100C340080F83E30FFF7B8FFC7E7222BC5D1438DBC
:100C44009BB22BB90268536823F480635360BCE7FA
:100C540090F83E30DBB2402B0BD0426A0368127826
:100C64001A61436A01334362438D013B9BB243855E
:100C7400ABE7036D9BB9C36C012B08D0836CC3F342
:100C8400072302681361036D013303659DE7836CD9
:100C94000268DBB21361036D0233036595E7036DEC
:100CA400012B18D0036D022B8FD190F83D30DBB2AD
:100CB400222B18D090F83D30DBB2212B85D1426A2B
:100CC400036812781A61436A01334362438D013B1E
:100CD4009BB2438579E7836C0268DBB21361036DD1
:100CE4000133036571E70268136843F4807313608A
:100CF4006BE708B5C26A90F83D30DBB2212B00D017
:100D040008BD438D9BB25BB1426A036812781A61D5
:100D1400436A01334362438D013B9BB24385EFE752
:100D2400082A04D0202A02D012F5803F19D1026883
:100D3400536823F4E06353600268136843F4007358
:100D4400136000230363202380F83D3090F83E3085
:100D5400DBB2402B15D0002380F83E30FFF767FE4E
:100D6400CEE70268536823F4E063536011230363FE
:100D7400002380F83E30202380F83D30FFF757FEF3
:100D8400BEE7002380F83E30FFF70EFFB8E7704758
:100D940008B590F83D30DBB2222B00D008BD438D5E
:100DA4009BB2032B14D903681A69436A1A70436A05
:100DB40001334362438D013B9BB24385438D9BB218
:100DC400032BEBD10268536823F480635360E5E797
:100DD400C26A022AE2D0012BE0D80268136823F425
:100DE400806313600268536823F4E063536003680C
:100DF4001A69436A1A70436A01334362438D013BA3
:100E04009BB24385202380F83D3090F83E30DBB21E
:100E1400402B07D0002380F83E3012230363FFF7F2
:100E240007FEBBE7002380F83E300363FFF7AFFF04
:100E3400B4E708B5C26A438D9BB2042B13D0438D2B
:100E44009BB2032B20D0438D9BB2022B36D0036878
:100E54001A69436A1A70436A01334362438D013B42
:100E64009BB243850FE00268536823F480635360A8
:100E740003681A69436A1A70436A01334362438DF3
:100E8400013B9BB2438508BD01684B6823F4806332
:100E94004B60042A06D0022A04D00268136823F4A3
:100EA4008063136003681A69436A1A70436A0133E2
:100EB4004362438D013B9BB24385E4E7012A0BD097
:100EC400102A09D0042A36D0022A34D002681368C2
:100ED40043F40073136004E00268136823F480632E
:100EE400136003681A69436A1A70426A531C4362A6
:100EF400438D013B9BB2438503681B695370436A6E
:100F040001334362438D013B9BB2438502685368BE
:100F140023F440735360202380F83D3090F83E3032
:100F2400DBB2402B0DD0002380F83E301223036344
:100F3400FFF77EFDA7E70268136843F4806313603C
:100F4400CFE7002380F83E300363FFF720FF9AE7E2
:100F5400704710B5806B90F83D20416B0023CB6344
:100F6400816BCB630468216821F48061216043852F
:100F7400416B0B65816B0B6501680B6823F0010302
:100F84000B6090F83D30DBB2602B0DD0D2B202F092
:100F94002802282A12D0202380F83D30002380F82C
:100FA4003E3001F07DFC10BD202380F83D3000234D
:100FB40080F83E300364FFF7CBFFF4E70268136860
:100FC40043F0010313600268136843F48063136001
:100FD40000230363282380F83D30E2E710B504467C
:100FE40090F83D30DBB290F83E20D2B2102A33D0D4
:100FF40003F02802282A37D02268526812F4006FBE
:1010040004D1602B02D0202384F83D3000232363D5
:1010140084F83E3023685A6812F4006F48D05A6846
:1010240022F400625A60626B92F83530DBB2012B15
:1010340020D0424B1365606BFFF789FA002849D032
:101044002268136823F001031360202384F83D30E1
:10105400606B036D98473DE0222BC9D101680A6893
:1010640022F400620A60C3E700232363282384F880
:101074003D30CFE7A36B314A1A65A06BFFF767FADF
:1010840040B323685A6912F0400F05D01A69636AA5
:101094001A70636A013363622268136823F00103E0
:1010A4001360202384F83D30A06B036D984711E052
:1010B40094F83D20D2B2602A16D05A6912F0400F3B
:1010C40005D01A69636A1A70636A01336362204641
:1010D40001F0E6FB94F83D30DBB2226C12F0040F11
:1010E40001D0282B18D010BD202284F83D200022E6
:1010F40022645A6912F0400F05D01A69636A1A70A3
:10110400636A013363622268136823F00103136086
:101114002046FFF71DFFDDE72268536823F4E063F0
:101124005360074BE36200232363202284F83D20AD
:1011340084F83E30204601F076FBD4E7570F0008D0
:101144000000FFFF30B583B0044690F83D50EDB287
:101154000268536823F4E063536000230193036837
:101164005A6901921A6842F001021A60019B0268EE
:10117400136823F48063136003685A6812F4006FE1
:1011840038D0222D21D02A2D1FD0426B12685268EC
:1011940092B24285428D92B21AB1026C42F00402BC
:1011A40002645A6822F400625A60606BFFF7E2F945
:1011B40001281FD0636B434A1A65606BFFF7C7F9B8
:1011C400C0B1606B036D984714E0A26B126852685B
:1011D40092B26285628D92B21AB1226C42F004021C
:1011E40022645A6822F400625A60A06BFFF7C2F9C5
:1011F400012840D1638D9BB223B323685A6912F04E
:10120400040F09D01A69636A1A70636A013363624E
:10121400638D013B9BB2638523685A6912F0400FCA
:1012240009D01A69636A1A70636A01336362638D51
:10123400013B9BB26385638D9BB21BB1236C43F06E
:1012440004032364236C13BB2A2D25D094F83D306A
:10125400DBB2282B29D0236B222B01D0222D19D1CC
:1012640000232363202284F83D2084F83E30204666
:1012740001F0F5FA0EE0A36B124A1A65A06BFFF7B2
:1012840066F90028B6D0A06B036D9847B2E72046F4
:10129400FFF7A4FE03B030BD00232363282384F8A2
:1012A4003D30204601F0DBFAD0E7074BE362002330
:1012B4002363202284F83D2084F83E30204601F048
:1012C400B2FAE7E7570F00080000FFFF70B50446C5
:1012D40002685568C66A90F83E30DBB290F83D105B
:1012E400102B14D0C8B2402B11D0236C002B71D01A
:1012F4005369002113F0020F6FD015F4007F6CD0F6
:10130400236C03B191692046FFF7DDFB70BD906942
:10131400536913F0010105D1B6F52A0FF6D0B6F1E1
:101324002A4FF3D011B115F4007F25D113F0080F23
:1013340002D015F4007F26D113F0020F02D015F469
:10134400007F24D110F0040F29D0526812F4006FEA
:10135400DCD113F0800F05D015F4806F02D013F0A8
:10136400040F18D013F0040FD0D015F4007FCDD0A3
:101374002046FFF7BEFCC9E72046FFF79CFA20464B
:10138400FFF70AF9C2E72046FFF75DF9BEE72046FA
:10139400FFF770F9BAE72046FFF707FCB6E7526893
:1013A40012F4006FB2D113F0400F05D015F4806F22
:1013B40002D013F0040F09D013F0040FA6D015F4D3
:1013C400007FA3D02046FFF734FD9FE72046FFF7B8
:1013D400DFFC9BE7916953698CE713F0100F02D08F
:1013E40015F4007F17D1212819D0292817D013F01C
:1013F400400F05D015F4806F02D013F0040F27D0EE
:1014040013F0040F82D015F4007F3FF47FAF204621
:10141400FFF742FA7AE72046FFF794FE76E713F0E7
:10142400800F05D015F4806F02D013F0040F0BD099
:1014340013F0040F3FF46AAF15F4007F3FF466AF76
:101444002046FFF71AFA61E72046FFF7F2FA5DE754
:101454002046FFF713FB59E7F8B5044603685D69B6
:101464005F6815F4807F07D017F4807F3BD06FF45A
:1014740080725A61012600E0002615F4007F08D02E
:1014840017F4807F05D046F0020623686FF40072DB
:101494005A6115F4806F18D017F4807F15D094F832
:1014A4003E30DBB2628D91B294F83D20D2B2206B13
:1014B400202B1AD023686FF480625A6146F0040628
:1014C40094F83E30DBB2102B1DD015F4006F08D019
:1014D40017F4807F05D046F0080623686FF4006295
:1014E4005A61B6B9F8BD0026C7E70029E2D1212A1E
:1014F40005D0292A03D0282ADCD12128DAD1204694
:10150400FFF708FBE1E72268136843F400731360F4
:10151400DBE7236C1E4326642046FFF75FFDE1E70B
:10152400002800F0B98170B582B00446036813F056
:10153400010F3BD0A64B9B6803F00C03042B2CD06B
:10154400A34B9B6803F00C03082B21D06368B3F50D
:10155400803F4FD0B3F5A02F52D09D4B1A6822F490
:1015640080321A601A6822F480221A606368002BA1
:1015740050D0FEF757FF0546954B1B6813F4003F08
:1015840014D1FEF74FFF401B6428F5D903208AE1EC
:101594008F4B5B6813F4800FD8D08D4B1B6813F40A
:1015A400003F03D06368002B00F07881236813F0B8
:1015B400020F54D0864B9B6813F00C0F3ED0844B23
:1015C4009B6803F00C03082B33D0E368002B67D02F
:1015D400804B01221A60FEF725FF05467C4B1B68F1
:1015E40013F0020F53D1FEF71DFF401B0228F5D95B
:1015F400032058E1764A136843F480331360B5E757
:10160400734B1A6842F480221A601A6842F48032DA
:101614001A60ABE7FEF706FF05466D4B1B6813F433
:10162400003FC3D0FEF7FEFE401B6428F5D903201B
:1016340039E1674B5B6813F4800FC6D1644B1B68B8
:1016440013F0020F03D0E368012B40F02981604AB4
:10165400136823F0F803216943EAC1031360236884
:1016640013F0080F40D0636963B35B4B01221A6027
:10167400FEF7D8FE0546564B5B6F13F0020F33D1CD
:10168400FEF7D0FE401B0228F5D903200BE1504A97
:10169400136823F0F803216943EAC1031360DEE70A
:1016A4004C4B00221A60FEF7BDFE0546484B1B68F2
:1016B40013F0020FD3D0FEF7B5FE401B0228F5D974
:1016C4000320F0E0444B00221A60FEF7ABFE05460F
:1016D4003F4B5B6F13F0020F06D0FEF7A3FE401BD7
:1016E4000228F5D90320DEE0236813F0040F78D034
:1016F400374B1B6C13F0805F33D100230193344BC1
:101704001A6C42F080521A641B6C03F080530193EC
:10171400019B0125314B1B6813F4807F23D0A36800
:10172400012B34D0052B38D0294B1A6F22F001023B
:101734001A671A6F22F004021A67A368002B36D0C6
:10174400FEF770FE0646224B1B6F13F0020F47D1C3
:10175400FEF768FE801B41F288339842F3D90320D8
:10176400A1E00025D6E71D4A136843F48073136093
:10177400FEF758FE0646194B1B6813F4807FCED142
:10178400FEF750FE801B0228F5D903208BE0104A97
:10179400136F43F001031367CFE70D4B1A6F42F049
:1017A40004021A671A6F42F001021A67C5E7FEF7CE
:1017B40039FE0646064B1B6F13F0020F10D0FEF7DE
:1017C40031FE801B41F288339842F3D903206AE04A
:1017D4000038024000004742800E4742007000403B
:1017E400E5B9A369002B5DD0314A926802F00C027E
:1017F400082A5AD0022B17D02E4B00221A60FEF76B
:1018040011FE04462A4B1B6813F0007F42D0FEF7FA
:1018140009FE001B0228F5D9032044E0244A136C76
:1018240023F080531364DCE7224B00221A60FEF796
:10183400F9FD05461E4B1B6813F0007F06D0FEF72A
:10184400F1FD401B0228F5D903202CE0E369226A4C
:101854001343626A43EA8213A26A5208013A43EAD2
:101864000243E26A43EA0263114A5360114B0122C4
:101874001A60FEF7D7FD04460D4B1B6813F0007F7A
:1018840006D1FEF7CFFD001B0228F5D903200AE09C
:10189400002008E0002006E001207047012002E05B
:1018A400012000E0002002B070BD0120FBE700BF72
:1018B4000038024060004742314B9B6803F00C0340
:1018C400042B58D0082B58D170B52D4B5A6802F010
:1018D4003F025B6813F4800F2AD0294B5868C0F389
:1018E40088100546002643011B1A66EB0604A10175
:1018F40041EA93619801C01A61EB0401CB0043EA09
:101904005073C4001946601946EB01014B0243EAC7
:10191400D0534402204619463346FEF741FC184B87
:101924005B68C3F3014301335B00B0FBF3F070BDAC
:10193400134B5868C0F388100546002643011B1A50
:1019440066EB0604A10141EA93619801C01A61EBB8
:101954000401CB0043EA5073C4001946601946EBF6
:1019640001018B0243EA9053840220461946334610
:10197400FEF716FCD3E7034870470348704700BFDF
:101984000038024000127A000024F400002800F01D
:101994009A8070B50446504B1B6803F00F038B42CA
:1019A40008D2CBB24C4A1370136803F00F038B4276
:1019B40040F08B80236813F0020F17D013F0040F4C
:1019C40004D0464A936843F4E0539360236813F0C9
:1019D400080F04D0414A936843F4604393603F4A3C
:1019E400936823F0F003A068034393600D462368D3
:1019F40013F0010F32D06368012B21D09A1E012A03
:101A040025D9364A126812F0020F60D033498A6829
:101A140022F0030213438B60FEF704FD06462F4BAE
:101A24009B6803F00C036268B3EB820F16D0FEF7D9
:101A3400F9FC801B41F288339842F0D9032041E03D
:101A4400264A126812F4003FE0D101203AE0234A0A
:101A5400126812F0007FD9D1012033E01E4B1B68BD
:101A640003F00F03AB4207D9EAB21B4B1A701B6891
:101A740003F00F03AB422CD1236813F0040F06D0FC
:101A8400164A936823F4E053E1680B439360236898
:101A940013F0080F07D0114A936823F460432169B7
:101AA40043EAC1039360FFF707FF0C4B9B68C3F342
:101AB40003130B4AD35CD8400A4B18600020FEF78E
:101AC40065FC002070BD012070470120FAE7012069
:101AD400F8E70120F6E700BF003C0240003802406E
:101AE4006C3800082400002010B504460368DA6846
:101AF40012F4807F03D09B6813F4805F0FD12368B6
:101B0400DA6812F4007F03D09B6813F4005F0FD1EE
:101B14000C4B4FF400325A610123637710BD00F07F
:101B24003FFD2268D368DBB263F4C073D360E6E799
:101B3400204600F009F82268D368DBB263F420730E
:101B4400D360E5E7003C0140704710B5044602232A
:101B540080F83D300368196A41F21112114208D12C
:101B6400196A40F24442114203D11A6822F0010278
:101B74001A60204600F050FB002084F83D0084F8F1
:101B84003C0010BD70477047704710B504460368A9
:101B94001A6912F0020F11D0DA6812F0020F0DD098
:101BA4006FF002021A610123037703689B6913F043
:101BB400030F70D0FFF7E6FF0023237723681A6929
:101BC40012F0040F12D0DA6812F0040F0ED06FF086
:101BD40004021A610223237723689B6913F4407F6C
:101BE4005FD02046FFF7CEFF0023237723681A69CE
:101BF40012F0080F12D0DA6812F0080F0ED06FF04E
:101C040008021A61042323772368DB6913F0030FA6
:101C14004ED02046FFF7B6FF0023237723681A69C6
:101C240012F0100F12D0DA6812F0100F0ED06FF00D
:101C340010021A61082323772368DB6913F4407FB9
:101C44003DD02046FFF79EFF0023237723681A69BF
:101C540012F0010F03D0DA6812F0010F36D12368B5
:101C64001A6912F0800F03D0DA6812F0800F34D1B1
:101C740023681A6912F0400F03D0DA6812F0400F9B
:101C840032D123681A6912F0200F03D0DA6812F0F7
:101C9400200F30D110BD00F0C1FC2046FFF773FFC8
:101CA4008AE7204600F0BAFC2046FFF76CFF9BE76A
:101CB400204600F0B3FC2046FFF765FFACE7204662
:101CC40000F0ACFC2046FFF75EFFBDE76FF00102B9
:101CD4001A61204600F0C9FCC1E76FF080021A6166
:101CE400204600F089F8C3E76FF040021A612046ED
:101CF400FFF74AFFC5E76FF020021A61204600F0A3
:101D04007AF8C7E710B401F01F01012303FA01F4C4
:101D1400036A23EA04030362036A8A4013430362E7
:101D24005DF8044B7047000010B5044600220068BB
:101D3400FFF7E8FF2368134A934213D02368196A14
:101D440041F21112114208D1196A40F2444211427F
:101D540003D11A6822F001021A60012384F83D308D
:101D6400002010BD196A41F211121142E6D1196A1C
:101D740040F244421142E1D15A6C22F400425A64C6
:101D8400DCE700BF0000014010B401F01F01042390
:101D940003FA01F4036A23EA04030362036A8A4030
:101DA400134303625DF8044B704710B504460022E8
:101DB4000068FFF7E9FF2368196A41F21112114222
:101DC40008D1196A40F24442114203D15A6C22F4F8
:101DD40000425A642368196A41F21112114208D16F
:101DE400196A40F24442114203D11A6822F00102F6
:101DF4001A60002010BD704770470268D36823F44E
:101E04009073D3600268536923F001035361202364
:101E140080F83A30704790F83930DBB2212B01D08A
:101E2400022070478368B3F5805F16D0036A5A1C9A
:101E340002621A7803685A60C38C013B9BB2C38464
:101E44004BB90268D36823F08003D3600268D36877
:101E540043F04003D36000207047036A1B88026884
:101E6400C3F30803536003691BB9036A02330362B3
:101E7400E2E7036A01330362DEE790F83930DBB24C
:101E8400202B16D1B9B1C2B190F83830012B16D03D
:101E940001628284C2840023C363212280F8392032
:101EA40080F838300168CA6842F08002CA60184677
:101EB40070470220704701207047012070470220BC
:101EC400704790F83A30DBB2202B20D109B312B31B
:101ED40090F83830012B20D081628285C28500239E
:101EE400C363222280F83A2080F838300168CA6837
:101EF40042F48072CA6001684A6942F001024A6190
:101F04000168CA6842F02002CA601846704702207D
:101F1400704701207047012070470220704708B5C0
:101F24000168CB6823F04003CB60202380F839306C
:101F340000F041FD002008BD08B590F83A30DBB24E
:101F4400222B45D18368B3F5805F0ED0036903BBB0
:101F540003685A68836A591C81621A70C38D013BF5
:101F64009BB2C385F3B1002008BD826A036943B9FB
:101F740003685B68C3F308031380836A02338362D4
:101F8400ECE703685B68DBB21380836A0133836226
:101F9400E4E703685B68826A511C816203F07F0393
:101FA4001370DBE70268D36823F02003D360026870
:101FB400D36823F48073D3600268536923F0010368
:101FC4005361202380F83A3000F0EEFC0020CBE788
:101FD4000220C9E710B5044602681368D168526943
:101FE40013F00F0005D113F0200F02D011F0200FD1
:101FF40013D128B112F0010213D111F4907F10D142
:1020040013F0800F02D011F0800F69D113F0400F4C
:1020140002D011F0400F67D110BD2046FFF78CFFAE
:10202400FAE713F0010F06D011F4807F03D0E06BC0
:1020340040F00100E06313F0040F04D01AB1E06B28
:1020440040F00200E06313F0020F04D01AB1E06B19
:1020540040F00400E06313F0080F04D01AB1E26BFF
:1020640042F00802E263E26B002AD5D013F0200F9D
:1020740002D011F0200F21D123685B6903F04003E3
:10208400E26B12F0080F00D123B32046FFF7B5FE30
:1020940023685A6912F0400F18D05A6922F040029E
:1020A4005A61636B73B1124A1A65606BFEF74FFA9B
:1020B4000028B1D0606B036D9847ADE72046FFF769
:1020C4003BFFD9E7204600F08BFCA5E7204600F053
:1020D40087FCA1E7204600F083FC0023E3639BE731
:1020E4002046FFF798FE97E72046FFF718FF93E78F
:1020F400F920000808B5806B0023C385C38400F071
:102104006FFC08BD90F8393090F83A0018437047D6
:1021140086B0052859D8DFE800F00312202E3C4A87
:10212400002300932A4B1A6B42F001021A631B6BC3
:1021340003F001030093009B264806B07047002378
:102144000193234B1A6B42F002021A631B6B03F0D8
:1021540002030193019B2048EFE7002302931C4BE9
:102164001A6B42F004021A631B6B03F0040302931C
:10217400029B1A48E1E700230393154B1A6B42F0C4
:1021840008021A631B6B03F008030393039B1448B0
:10219400D3E7002304930E4B1A6B42F010021A6328
:1021A4001B6B03F010030493049B0E48C5E7002344
:1021B4000593074B1A6B42F080021A631B6B03F002
:1021C40080030593059B0848B7E70020B5E700BFE7
:1021D40000380240000002400004024000080240AF
:1021E400000C024000100240001C024008B50949DE
:1021F40000F0CCF9C0F3C430032805D0042805D07E
:10220400022805D0002008BD0820FCE70C20FAE7CE
:102214000420F8E75435000808B500F02DFA08BD8D
:1022240030B591B00546134900F085F90090D0B15E
:102234002846FFF7DBFF044638B1042805D00828F8
:1022440003D00C2801D03C280DD10A49284600F0BF
:102254009DF910F4801F08D021466846FFF7A5FDBC
:102264006846FFF772FC11B030BD21466846FFF79F
:102274005BFDF5E75435000808B5FEF7D3F808BD53
:10228400704708B5FEF7C2F8FEF75DF9FFF7F8FFEF
:1022940008BD00000C4BDB6813F0807F04D10A4AB0
:1022A400D36843F08073D360084B00225A601A68E5
:1022B40042F001021A6000BF00BF00BF5868B0FAC4
:1022C40080F04009704700BFF0ED00E0001000E02E
:1022D40008B5FFF7DFFFFEF77FF8FDF7E1FF08BD64
:1022E400B0F1FF3F08D0B1F90030B3F1FF3F05D0A2
:1022F400834205D00C31F6E7002070470020704778
:10230400012070472DE9F84380460E4601F0070787
:10231400C1F30629C0F3031500F00F027D4B53F8F7
:102324002240B0F1FF3F20D02846FFF7F1FE0546DA
:10233400836894FAA4F2EAB1B2FA82F25200032159
:1023440001FA02F223EA020294FAA4F3A3B1B3FA63
:1023540083F35B00032101FA03F31343AB608F4261
:1023640055D8DFE807F00B5A0D5243216A4800F0B4
:102374002BF9D9E72022E1E72023EAE739464DE0AB
:102384001FFA88F808F00F02624B53F8223018F055
:10239400080F1DD0696A1B0A93FAA3F2A2B1B2FA1C
:1023A40082F292000F2000FA02F221EA020293FA6A
:1023B400A3F35BB1B3FA83F39B0009FA03F942EA8E
:1023C40009026A62022129E02022EAE72023F3E7D6
:1023D400296A93FAA3F2A2B1B2FA82F292000F2010
:1023E40000FA02F221EA020293FAA3F35BB1B3FA10
:1023F40083F39B0009FA03F942EA09022A620221E3
:102404000CE02022EAE72023F3E7032106E06A2117
:10241400414800F0D9F8002100E001212B6894FA2A
:10242400A4F25AB3B2FA82F25200032000FA02F282
:1024340023EA020294FAA4F313B3B3FA83F35B001E
:1024440001FA03F313432B60013F012F1AD9C6F39A
:102454000116012E22D0022E3DD0EA6894FAA4F38C
:10246400002B54D0B3FA83F35B00032101FA03F386
:1024740022EA030394FAA4F4EB6026E02022D3E7D3
:102484002023DCE716F0080F03D06B6823436B604E
:10249400DDE76B6823EA04036B60D8E7EA6894FA23
:1024A400A4F3A3B1B3FA83F35B00032101FA03F3AA
:1024B40022EA030394FAA4F45CB1B4FA84F4640049
:1024C400012202FA04F41C43EC60BDE8F8832023E3
:1024D400EAE72024F3E7EA6894FAA4F39BB1B3FA99
:1024E40083F35B00032101FA03F322EA030394FA62
:1024F400A4F454B1B4FA84F46400022202FA04F499
:102504001C43EC60E1E72023EBE72024F4E72023DD
:10251400AAE700BF2C380008C4370008B1F900301E
:10252400B3F1FF3F05D0834201D00C31F6E7486890
:10253400704700207047B0F1FF3F03D008B5FFF7A4
:10254400EDFF08BD002070474B6833B1834201D0D2
:102554000C31F9E7B1F9000070474FF0FF307047D4
:1025640018B108B5FFF7F0FF08BD4FF0FF30704712
:10257400B1F90030B3F1FF3F05D0834201D00C31F3
:10258400F6E7886870474FF0FF307047B0F1FF3FBF
:1025940003D008B5FFF7ECFF08BD4FF0FF307047DC
:1025A40008B5034B1B6813B1024A1068984708BD6D
:1025B400AC000020D000002008B50248FFF794FAD0
:1025C40008BD00BFB0000020FEE700000F49D1F8AD
:1025D400883043F47003C1F888300D4B1A6842F018
:1025E40001021A60002098601A6822F0847222F4B2
:1025F40080321A60074A5A601A6822F480221A60EC
:10260400D8604FF000638B60704700BF00ED00E0BE
:1026140000380240103000240438704738B50546AD
:10262400FFF7FAFF04462B7F013B072B0DD8DFE8A9
:1026340003F0040D0C120C0C0C17036D03B1984736
:10264400E36C13B100212046984738BD436D002B3D
:10265400FBD09847F9E7836D002BF6D09847F4E751
:10266400C36D002BF1D09847EFE708B5FFF7D4FF0F
:10267400836C03B1984708BD0268284B9A421CD06A
:102684000368B3F1804F1ED00268254B9A4220D0D4
:102694000268244B9A4222D00268234B9A4224D0E7
:1026A4000268224B9A4226D00268214B9A4228D0D3
:1026B4000268204B9A422AD070471F4A536C23F079
:1026C40001035364DCE71C4A136C23F00103136415
:1026D400DAE7194A136C23F002031364D8E7164AA5
:1026E400136C23F004031364D6E7134A136C23F02A
:1026F40008031364D4E7104A536C23F480335364FF
:10270400D2E70D4A536C23F400335364D0E70A4AEA
:10271400536C23F480235364CEE700BF00000140D0
:102724000004004000080040000C0040004001404C
:1027340000440140004801400038024008B5054B00
:10274400186808B1FFF721FA024B986908B1FFF73E
:102754001CFA08BDD400002008B5034B586808B122
:10276400FFF713FA08BD00BFD400002008B5034BDF
:10277400986808B1FFF709FA08BD00BFD40000202B
:1027840008B5034BD86808B1FFF7FFF908BD00BFCF
:10279400D400002008B5034B186908B1FFF7F5F918
:1027A40008BD00BFD400002008B5034B586908B128
:1027B400FFF7EBF908BD00BFD400002008B5034BB8
:1027C400D86908B1FFF7E1F908BD00BFD4000020C3
:1027D40004387047F8B505460F461646FFF7F8FF6C
:1027E400EB689E4200D0F8BD044677B9002380F818
:1027F4008D30836E03B1984794F88C20202304F124
:102804006C012846FEF766F8EDE700230366012213
:1028140080F88D20016E6831014404231944284650
:10282400FEF79FF8DFE738B50546FFF7D1FF04460A
:10283400426E22B190F88D30DBB2012B08D0022316
:1028440084F88D30002323662846FEF7D1F838BD7E
:10285400036E002BF3D0016E6C309047EFE710B598
:102864000446FFF7B5FF036E1F2B02DC036E013332
:10287400036690F88D30DBB2012B00D010BD016EE1
:10288400683101440423012219442046FEF769F803
:10289400F4E708B5FFF79CFF002380F88C3008BDEF
:1028A40010B50446FFF794FF90F88E3003B110BDC5
:1028B4002046FEF79DF8FAE708B5024B1868FEF7C4
:1028C40005FD08BDF400002008B5024B1868FEF7AA
:1028D400C3FD08BDF400002008B5024B5868FEF79C
:1028E400F5FC08BDF400002008B5024B5868FEF75B
:1028F400B3FD08BDF400002008B5024B9868FEF74C
:10290400E5FC08BDF400002008B5024B9868FEF70A
:10291400A3FD08BDF40000200438704708B590F802
:102924005120064B53F82200FFF7ECFB00F0220085
:10293400222814BF0020012008BD00BF0001002090
:1029440008B590F85120064B53F82200FFF7DAFB44
:1029540000F02100212814BF0020012008BD00BF81
:1029640000010020E8B110B50446816490F95000DC
:10297400FDF7B2FD94F85100A16DB4F86230012264
:102984001944084B53F82000FFF777FA002201217D
:1029940094F95000FDF75EFD94F95000FDF78EFDAB
:1029A40010BD70470001002008B5FFF7B5FF08B15E
:1029B400426C904708BD38B50546FFF7ADFF28B116
:1029C4000446836C9847B0F1FF3F00D138BDA16D38
:1029D400B4F86230012219442846FFF74EFAF5E7AD
:1029E40030B585B0044603681A6812F0010F10D0A0
:1029F400002200921A6800925B680093009B2046B4
:102A0400FFF78AFF054610B1FFF788FF28B305B02A
:102A140030BD1A6812F0020F07D0002201921A6822
:102A240001925B680193019BE9E71A6812F0040FB5
:102A340007D0002202921A6802925B680293029BFA
:102A4400DDE71A6812F0080FD9D0002203921A6841
:102A540003925B680393039BD1E7012205F15201C2
:102A64002046FFF72EFAD2E708B52520FDF75CFDD6
:102A7400024B1868FFF7AEFA08BD00BF0001002042
:102A840008B52620FDF750FD024B5868FFF7A2FA5F
:102A940008BD00BF0001002008B54720FDF744FD34
:102AA400024B9868FFF796FA08BD00BF00010020AA
:102AB400FEE70000024B16221A604FF0FF30704709
:102AC40070030020012070473A2850D8F8B5284BED
:102AD40033F91050B5F1FF3F2AD00C46C5F3031665
:102AE400244B53F8263005F00F07FB4013F0010F79
:102AF40006D1052C36D8DFE804F0172B1C2126302C
:102B04001D492846FFF7ECFB50B91A4951F8263005
:102B1400012202FA07F723EA070341F82630E8E71F
:102B24002846FFF77DFBF0E700212846FFF7EAFB84
:102B3400F8BD10212846FFF7E5FBF9E720212846D8
:102B4400FFF7E0FBF4E703212846FFF7DBFBEFE7A1
:102B540001212846FFF7D6FBEAE709212846FFF7BB
:102B6400D1FBE5E748210548FFF72EFDE0E7704774
:102B74004C3700080C010020543500087C3800084C
:102B84003A2803D80C4B33F9103001E04FF0FF33EF
:102B9400C3F30312052A03D8084850F8222000E0A2
:102BA400002203F00F03064850F8233009B1936163
:102BB40070471B04936170474C3700080C000020D9
:102BC4002C38000808B5FFF757FB08BD00B970475B
:102BD40038B50446FFF750FB0546FDF7D4FBFFF775
:102BE4004BFB401BA042F8D338BDB0F86230013330
:102BF4005A4203F03F0302F03F0258BF53429BB2D4
:102C0400A0F86230B0F85E20B0F862309BB29A420D
:102C140001D0002070474FF0FF307047B0F8F43017
:102C24004033B0F8F000181A00F03F007047B0F8D5
:102C3400F4309BB2B0F8F020934203D0D0F8E830DF
:102C4400985C70474FF0FF307047B0F8F42092B2B0
:102C5400B0F8F0309A4209D0D0F8E820D25C0133C1
:102C640003F03F03A0F8F030104670474FF0FF30F8
:102C74007047037C33B1B0F8F220B0F8F6309BB261
:102C84009A42F8D17047000070B501230374B0F87C
:102C9400F250EC18634204F03F0403F03F0358BFC2
:102CA4005C42E6B2B0F8F6309BB2E2B29342F9D09D
:102CB400D0F8EC305955A0F8F26000F194042046A5
:102CC400FFF73EFE08B1012070BD02492046FFF720
:102CD40049FEF8E7EF2B000800F11103C0F8E830D3
:102CE4000023A0F8F430A0F8F03000F15102C0F84D
:102CF400EC20A0F8F230A0F8F63070473A2903D857
:102D0400044B33F9113001E04FF0FF33A0F8E23007
:102D1400704700BF4C3700083A2903D8044B33F9F5
:102D2400113001E04FF0FF33A0F8E030704700BFEE
:102D34004C37000838B50446002343604FF47A73D7
:102D440083600F4B03600F4B984211D00D460E4920
:102D54002846FFF705FCA4F8E2000C492846FFF7D3
:102D6400FFFBA4F8E0002046FFF7B6FF204638BD7D
:102D74000021FFF7C3FF01212046FFF7CDFFF2E753
:102D8400F038000824010020BC360008043700088D
:102D9400012800D0704708B54FF6FF73994200D060
:102DA40008BD02490248FFF7C5FFF9E700440040A7
:102DB4002401002008B54FF6FF710120FFF7E8FF5A
:102DC40008BDF8B507460E4600242546022C0DDC46
:102DD4003B190A221979304600F08CF805442E215B
:102DE400304600F048F805440134EFE70A22F97947
:102DF400304600F07FF82844F8BD000030B4054D9B
:102E040005600171427183719DF80830C37130BC53
:102E1400704700BF18390008012800D070474FF6EA
:102E2400FF739942FAD100B583B0002100910B469B
:102E34000A460348FFF7E2FF03B05DF804FB00BF56
:102E44002402002008B54FF6FF710120FFF7E4FFCC
:102E540008BDF8B506460C460025571E4AB133682E
:102E64001B6814F8011B3046984710B101353A46E7
:102E7400F3E72846F8BD08B503681B68984708BD02
:102E8400F0B58BB0054600238DF82430012A01D912
:102E940009AC08E00A22FBE73733DBB204F8013D52
:102EA4008F420ED831461746B1FBF2F6CBB216FB71
:102EB40002F0C0B21B1ADBB2092BEDD83033DBB2FF
:102EC400ECE754B12B685E682046FDF761F90246D1
:102ED40021462846B0470BB0F0BD0020FBE708B5FB
:102EE40022B903681B68C9B2984708BDD2B2FFF77C
:102EF400C7FFFAE708B5FFF7F2FF08BD10B50446AF
:102F0400FFF760FEE0602368DB68204698470028EE
:102F140008DAFFF757FEE368C01AA3689842F2D3B1
:102F24004FF0FF3010BDF8B507460C461646002595
:102F3400B5420AD23846FFF7E1FF002805DB2146F7
:102F440001F8010B01350C46F2E72846F8BD2DE9DE
:102F5400F0411E469BB1074688461446002504E00E
:102F6400224602F8010B01351446B54208D2384610
:102F7400FFF7C4FF002803DB8045F1D100E01D46C4
:102F84002846BDE8F081000008B5054B1BB1054893
:102F9400FFF744FE00B908BDAFF30080FBE700BFB4
:102FA4000000000024010020704708B50320FDF74D
:102FB4003FFAFDF7E4F908BD08B5FFF7F5FFFDF7A3
:102FC4004FF901E0FFF7E0FFFDF750F9014B002B4B
:102FD400F8D1F9E78D2F00080023012803D0400819
:102FE4000133DBB2F9E718467047000010B5074C0F
:102FF400074B9C4208D0143CE368002BF8D0201DFA
:10300400032201469847F3E710BD00BF6C0300207C
:103014002C020020012800D0704708B54FF6FF733A
:10302400994200D008BD234B06221A700020D860B4
:1030340007221A751862082283F828205863092287
:1030440083F83C2098640A2283F85020D86517221C
:1030540083F86420186783F87820C3F8840083F821
:103064008C20C3F8980083F8A020C3F8AC0083F840
:10307400B420C3F8C000282283F8C820C3F8D400C1
:1030840083F8DC20C3F8E80083F8F020C3F8FC00E0
:1030940083F80421C3F8100183F81821C3F824012C
:1030A40083F82C21C3F83801034A044900F057F887
:1030B400B8E700BF2C02002000000020F12F000818
:1030C40008B50120FDF75AFA08BD08B50220FDF73E
:1030D40055FA08BD08B50420FDF750FA08BD08B537
:1030E4000820FDF74BFA08BD08B51020FDF746FA95
:1030F40008BD10B52024B4F5007F04D8A0B2FDF7B4
:103104003DFA6400F7E710BD10B54FF48064B4F5E0
:10311400004F04D8A0B2FDF731FA6400F7E710BD00
:1031240008B5836813B1C368984708BD00F0B6F9C1
:1031340008B5FFF751FF00EB8000830003481844F3
:10314400043083680BB1FFF7EBFF08BD2C020020AD
:1031540008B54FF6FF710120FFF75CFF08BD0B4671
:103164000146184600F000B810B5054C13462CB1C2
:103174000A4601460220AFF3008010BD2046FCE75A
:103184000000000070B50D4D0D4C641BA41000260A
:10319400A64209D10B4D0C4C00F0CEF9641BA410CF
:1031A4000026A64205D170BD55F8043B9847013668
:1031B400EEE755F8043B98470136F2E72439000856
:1031C4002439000824390008383900082DE9F0476B
:1031D400089E04468846002B40F085808A421546A6
:1031E40048D9B2FA82F24AB1C2F1200701FA02F3D5
:1031F40020FA07F7954047EA030894404FEA154E32
:10320400230CB8FBFEF71FFA85FC0EFB178843EA74
:10321400084307FB0CF1994209D9EB1807F1FF3079
:1032240080F0E380994240F2E080023F2B445B1A35
:10323400A4B2B3FBFEF00EFB103344EA034400FBDC
:103244000CFCA44509D92C1900F1FF3380F0CB8084
:10325400A44540F2C88002382C4440EA0740A4EB5D
:103264000C0400271EB1D4400023C6E900433946AC
:10327400BDE8F087002A53D0B2FA82F2002A40F067
:10328400B680491B4FEA154E1FFA85F80127B1FB9A
:10329400FEFC230C0EFB1C1143EA014308FB0CF15A
:1032A400994207D9EB180CF1FF3002D2994200F28F
:1032B400EC808446591AA3B2B1FBFEF00EFB101445
:1032C40043EA044408FB00F8A04507D92C1900F18F
:1032D400FF3302D2A04500F2DC801846A4EB0804B8
:1032E40040EA0C40BEE78B4208D9002E78D0002774
:1032F400C6E9000138463946BDE8F087B3FA83F7DA
:103304007FB98B4202D3824200F2BD80841A61EB02
:10331400030301209846002EA9D0C6E90048A6E779
:10332400FFDEC7F12005BB4022FA05FC4CEA030C82
:1033340001FA07F420FA05F821FA05F34FEA1C4EC6
:1033440048EA0404B3FBFEF9210C0EFB19331FFAFF
:103354008CF841EA034309FB08FA9A4502FA07F29A
:1033640000FA07F10BD91CEB030309F1FF3080F0DD
:1033740088809A4540F28580A9F102096344A3EB51
:103384000A03A4B2B3FBFEF00EFB103344EA034479
:1033940000FB08F8A04508D91CEB040400F1FF3336
:1033A4006BD2A04569D90238644440EA0940A4EBD1
:1033B4000804A0FB02894C45C6464B4654D351D061
:1033C400002E69D0B1EB0E0264EB030404FA05F598
:1033D40022FA07F3FC401D43C6E90054002746E7E0
:1033E4003746304643E7184637E707461FE7C2F13A
:1033F400200320FA03F7954001FA02F021FA03F3BF
:103404004FEA154E3843010CB3FBFEF71FFA85F85B
:103414000EFB173341EA034107FB08F38B4204FA1E
:1034240002F407D9691807F1FF3C28D28B4226D948
:10343400023F2944CB1A81B2B3FBFEF00EFB1033DA
:1034440041EA034100FB08F38B4207D9691800F1F4
:10345400FF3C10D28B420ED902382944C91A40EAE3
:10346400074714E74145ABD2B8EB020E69EB0C02F7
:1034740001381346A4E76046F0E7184695E7674627
:10348400D8E781467BE7384645E7ACF1020C2B448C
:1034940010E702382C4421E73746E8E608B500F087
:1034A40000F808B5062000F02BF80120FFF700FB18
:1034B4001F2938B504460D4604D9162303604FF07E
:1034C400FF3038BD426C12B152F821304BB920465E
:1034D40000F030F82A4601462046BDE8384000F0A6
:1034E40017B8012B0AD0591C03D1162303600120FD
:1034F400E7E7002442F82540284698470020E0E703
:10350400024B01461868FFF7D3BF00BF2800002014
:1035140038B5074C00230546084611462360FFF7DB
:10352400C9FA431C02D1236803B12B6038BD00BF24
:1035340070030020FFF7C6BAF8B500BFF8BC08BC9A
:103544009E467047F8B500BFF8BC08BC9E4670475D
:1035540000000000000C0040128200000100000086
:10356400000C00401202010002000000000C0040A8
:103574001282010003000000000C0040120202004D
:103584000500000000000040128100000600000059
:103594000004004012820000070000000004004004
:1035A4001202010008000000000001401281000026
:1035B4000900000000000140120101000A0000009F
:1035C40000000140128101000B00000000000140D6
:1035D400120102000F0000000000004012810000F0
:1035E40010000000000400401282010011000000DD
:1035F400000400401202020013000000000000401A
:1036040012010100140000000004004012820000B6
:103614001500000000040040120201001600000022
:10362400000800401282000017000000000800405B
:10363400120201001800000000080040128201007C
:103644001900000000080040120202001A000000E5
:1036540000000040128101001D0000000000014034
:10366400128110001E000000000001401201110030
:103674001F0000000000014012811100260000001C
:1036840000040040128200002700000000040040F3
:103694001202010028000000000400401282010010
:1036A400290000000004004012020200FFFF000095
:1036B400000000000000000003000000004400407F
:1036C400120700000A000000001001401207000069
:1036D4000C00000000140140120800001700000054
:1036E40000100140120700002700000000140140F0
:1036F40012080000FFFF00000000000000000000AE
:10370400020000000044004012070000090000000D
:1037140000100140120700000B00000000140140DB
:1037240012080000160000000010014012070000FB
:10373400260000000014014012080000FFFF0000F2
:103744000000000000000000030002000A00130053
:10375400150014001A0008000900270016000700CD
:1037640006000500190018002A002C00FFFF0D00B8
:103774000E000F0017002D002E002F0050005100E6
:10378400220023002B0032002900280026002500F7
:103794000C000B001C001B00120011001F001E0077
:1037A4001D0024000000010004001000210020007E
:1037B4000700060022002300250011002400000059
:1037C400433A5C55736572735C4D4C656E6F5C4136
:1037D4007070446174615C4C6F63616C5C417264D1
:1037E40075696E6F31355C7061636B616765735CBD
:1037F40053544D33325C68617264776172655C73F3
:10380400746D33325C312E362E315C636F726573A6
:103814005C61726475696E6F5C73746D33325C7075
:10382400696E6D61702E63000100000002000000EB
:103834000400000008000000100000002000000048
:1038440040000000800000000001000000020000B1
:103854000004000000080000001000000020000028
:103864000040000000800000000000000000000094
:103874000102030406070809433A5C557365727331
:103884005C4D4C656E6F5C417070446174615C4C5E
:103894006F63616C5C41726475696E6F31355C7025
:1038A40061636B616765735C53544D33325C68616B
:1038B4007264776172655C73746D33325C312E3679
:1038C4002E315C636F7265735C61726475696E6FCF
:1038D4005C776972696E675F6469676974616C2E8D
:1038E4006300000000000000000000008D2C0008B0
:1038F400572E0008212C00084F2C0008332C0008F8
:10390400772C00082B2F0008532F0008000000001C
:0839140000000000C72D0008AF
:08391C00B4F8FF7F0100000078
:10392400AF2F000841020008B92D0008492E0008F5
:043934005531000801
:043938001902000868
:10393C000000000001000000100000000000024028
:10394C000004024000080240000C0240001002403B
:10395C00001C02400024F4002C0000200000000099
:10396C00000000000000000000000000000000004B
:10397C00000000000000000000000000000000003B
:10398C00000000000000000000000000000000002B
:10399C00000000000000000000000000000000001B
:1039AC00000000000000000000000000000000000B
:0C39BC00000000000000000000000000FF
:0400000508000331BB
:00000001FF
